{
  "contractName": "Maticulum",
  "abi": [
    {
      "anonymous": false,
      "inputs": [
        {
          "indexed": false,
          "internalType": "uint256",
          "name": "id",
          "type": "uint256"
        },
        {
          "indexed": false,
          "internalType": "string",
          "name": "name",
          "type": "string"
        }
      ],
      "name": "SchoolAdded",
      "type": "event"
    },
    {
      "anonymous": false,
      "inputs": [
        {
          "indexed": false,
          "internalType": "uint256",
          "name": "id",
          "type": "uint256"
        },
        {
          "indexed": false,
          "internalType": "string",
          "name": "name",
          "type": "string"
        }
      ],
      "name": "SchoolUpdated",
      "type": "event"
    },
    {
      "anonymous": false,
      "inputs": [
        {
          "indexed": false,
          "internalType": "uint256",
          "name": "id",
          "type": "uint256"
        },
        {
          "indexed": false,
          "internalType": "string",
          "name": "name",
          "type": "string"
        },
        {
          "indexed": false,
          "internalType": "address",
          "name": "validator",
          "type": "address"
        },
        {
          "indexed": false,
          "internalType": "uint256",
          "name": "count",
          "type": "uint256"
        }
      ],
      "name": "SchoolValidated",
      "type": "event"
    },
    {
      "inputs": [
        {
          "internalType": "string",
          "name": "name",
          "type": "string"
        },
        {
          "internalType": "string",
          "name": "firstname",
          "type": "string"
        }
      ],
      "name": "Register",
      "outputs": [],
      "stateMutability": "nonpayable",
      "type": "function"
    },
    {
      "inputs": [],
      "name": "GetUser",
      "outputs": [
        {
          "components": [
            {
              "internalType": "string",
              "name": "name",
              "type": "string"
            },
            {
              "internalType": "string",
              "name": "firstname",
              "type": "string"
            }
          ],
          "internalType": "struct Maticulum.User",
          "name": "",
          "type": "tuple"
        }
      ],
      "stateMutability": "view",
      "type": "function",
      "constant": true
    },
    {
      "inputs": [
        {
          "internalType": "string",
          "name": "name",
          "type": "string"
        },
        {
          "internalType": "string",
          "name": "firstname",
          "type": "string"
        }
      ],
      "name": "UpdateUser",
      "outputs": [],
      "stateMutability": "nonpayable",
      "type": "function"
    },
    {
      "inputs": [],
      "name": "isRegistered",
      "outputs": [
        {
          "internalType": "bool",
          "name": "",
          "type": "bool"
        }
      ],
      "stateMutability": "view",
      "type": "function",
      "constant": true
    },
    {
      "inputs": [
        {
          "internalType": "string",
          "name": "_name",
          "type": "string"
        }
      ],
      "name": "addSchool",
      "outputs": [],
      "stateMutability": "nonpayable",
      "type": "function"
    },
    {
      "inputs": [
        {
          "internalType": "uint256",
          "name": "_id",
          "type": "uint256"
        },
        {
          "internalType": "string",
          "name": "_name",
          "type": "string"
        }
      ],
      "name": "updateSchool",
      "outputs": [],
      "stateMutability": "nonpayable",
      "type": "function"
    },
    {
      "inputs": [
        {
          "internalType": "uint256",
          "name": "_id",
          "type": "uint256"
        }
      ],
      "name": "validateSchool",
      "outputs": [],
      "stateMutability": "nonpayable",
      "type": "function"
    },
    {
      "inputs": [],
      "name": "getSchoolsWaitingValidation",
      "outputs": [
        {
          "components": [
            {
              "internalType": "string",
              "name": "name",
              "type": "string"
            },
            {
              "internalType": "address[]",
              "name": "validators",
              "type": "address[]"
            }
          ],
          "internalType": "struct Maticulum.School[]",
          "name": "needValidation",
          "type": "tuple[]"
        }
      ],
      "stateMutability": "view",
      "type": "function",
      "constant": true
    }
  ],
  "bytecode": "0x608060405234801561001057600080fd5b506117d4806100206000396000f3fe608060405234801561001057600080fd5b50600436106100885760003560e01c8063521e966c1161005b578063521e966c146101015780635ee0f6541461011d578063d6192e291461013b578063da6b918e1461015757610088565b8063213f14161461008d57806322366844146100ab5780632ab47acb146100c9578063396d73fd146100e5575b600080fd5b610095610173565b6040516100a29190611308565b60405180910390f35b6100b3610397565b6040516100c0919061132a565b60405180910390f35b6100e360048036038101906100de9190610ee3565b6103eb565b005b6100ff60048036038101906100fa9190610f90565b6104e1565b005b61011b60048036038101906101169190610fb9565b61074e565b005b61012561082a565b6040516101329190611385565b60405180910390f35b61015560048036038101906101509190610f24565b610a30565b005b610171600480360381019061016c9190610f24565b610ba8565b005b606060005b600380549050811015610393576002600382815481106101c1577f4e487b7100000000000000000000000000000000000000000000000000000000600052603260045260246000fd5b906000526020600020015481548110610203577f4e487b7100000000000000000000000000000000000000000000000000000000600052603260045260246000fd5b906000526020600020906002020160405180604001604052908160008201805461022c906115eb565b80601f0160208091040260200160405190810160405280929190818152602001828054610258906115eb565b80156102a55780601f1061027a576101008083540402835291602001916102a5565b820191906000526020600020905b81548152906001019060200180831161028857829003601f168201915b505050505081526020016001820180548060200260200160405190810160405280929190818152602001828054801561033357602002820191906000526020600020905b8160009054906101000a900473ffffffffffffffffffffffffffffffffffffffff1673ffffffffffffffffffffffffffffffffffffffff16815260200190600101908083116102e9575b505050505081525050828281518110610375577f4e487b7100000000000000000000000000000000000000000000000000000000600052603260045260246000fd5b6020026020010181905250808061038b9061164e565b915050610178565b5090565b6000600160003373ffffffffffffffffffffffffffffffffffffffff1673ffffffffffffffffffffffffffffffffffffffff16815260200190815260200160002060009054906101000a900460ff16905090565b6103f3610ce4565b81816000018190525060028190806001815401808255809150506001900390600052602060002090600202016000909190919091506000820151816000019080519060200190610444929190610cfe565b506020820151816001019080519060200190610461929190610d84565b50505060006001600280549050610478919061152d565b905060038190806001815401808255809150506001900390600052602060002001600090919091909150557f01d662eb094eae751a9e8c78515d3462dea52d84eaa6616e2ddeebe481e56e9b81846040516104d49291906113a7565b60405180910390a1505050565b60006002828154811061051d577f4e487b7100000000000000000000000000000000000000000000000000000000600052603260045260246000fd5b9060005260206000209060020201905080600101339080600181540180825580915050600190039060005260206000200160009091909190916101000a81548173ffffffffffffffffffffffffffffffffffffffff021916908373ffffffffffffffffffffffffffffffffffffffff16021790555060038160010180549050106107035760005b6003805490508110156107015782600382815481106105ec577f4e487b7100000000000000000000000000000000000000000000000000000000600052603260045260246000fd5b906000526020600020015414156106ee5760036001600380549050610611919061152d565b81548110610648577f4e487b7100000000000000000000000000000000000000000000000000000000600052603260045260246000fd5b90600052602060002001546003828154811061068d577f4e487b7100000000000000000000000000000000000000000000000000000000600052603260045260246000fd5b906000526020600020018190555060038054806106d3577f4e487b7100000000000000000000000000000000000000000000000000000000600052603160045260246000fd5b60019003818190600052602060002001600090559055610701565b80806106f99061164e565b9150506105a4565b505b7f612af120b0488db1855887593be0f7cb0a4299306f7b6fa63cbaaef364a73fb5828260000133846001018054905060405161074294939291906113d7565b60405180910390a15050565b60006002838154811061078a577f4e487b7100000000000000000000000000000000000000000000000000000000600052603260045260246000fd5b90600052602060002090600202019050818160000190805190602001906107b2929190610cfe565b508060010160006107c39190610e0e565b60038390806001815401808255809150506001900390600052602060002001600090919091909150557ffb771c013f868d6e1489c30b4f2e6ce2ae457350176853d17c639227808b0a19838360405161081d9291906113a7565b60405180910390a1505050565b610832610e2f565b600160003373ffffffffffffffffffffffffffffffffffffffff1673ffffffffffffffffffffffffffffffffffffffff16815260200190815260200160002060009054906101000a900460ff166108be576040517f08c379a00000000000000000000000000000000000000000000000000000000081526004016108b590611365565b60405180910390fd5b6000803373ffffffffffffffffffffffffffffffffffffffff1673ffffffffffffffffffffffffffffffffffffffff168152602001908152602001600020604051806040016040529081600082018054610917906115eb565b80601f0160208091040260200160405190810160405280929190818152602001828054610943906115eb565b80156109905780601f1061096557610100808354040283529160200191610990565b820191906000526020600020905b81548152906001019060200180831161097357829003601f168201915b505050505081526020016001820180546109a9906115eb565b80601f01602080910402602001604051908101604052809291908181526020018280546109d5906115eb565b8015610a225780601f106109f757610100808354040283529160200191610a22565b820191906000526020600020905b815481529060010190602001808311610a0557829003601f168201915b505050505081525050905090565b600160003373ffffffffffffffffffffffffffffffffffffffff1673ffffffffffffffffffffffffffffffffffffffff16815260200190815260200160002060009054906101000a900460ff1615610abd576040517f08c379a0000000000000000000000000000000000000000000000000000000008152600401610ab490611345565b60405180910390fd5b60018060003373ffffffffffffffffffffffffffffffffffffffff1673ffffffffffffffffffffffffffffffffffffffff16815260200190815260200160002060006101000a81548160ff0219169083151502179055506040518060400160405280838152602001828152506000803373ffffffffffffffffffffffffffffffffffffffff1673ffffffffffffffffffffffffffffffffffffffff1681526020019081526020016000206000820151816000019080519060200190610b83929190610cfe565b506020820151816001019080519060200190610ba0929190610cfe565b509050505050565b600160003373ffffffffffffffffffffffffffffffffffffffff1673ffffffffffffffffffffffffffffffffffffffff16815260200190815260200160002060009054906101000a900460ff16610c34576040517f08c379a0000000000000000000000000000000000000000000000000000000008152600401610c2b90611365565b60405180910390fd5b816000803373ffffffffffffffffffffffffffffffffffffffff1673ffffffffffffffffffffffffffffffffffffffff1681526020019081526020016000206000019080519060200190610c89929190610cfe565b50806000803373ffffffffffffffffffffffffffffffffffffffff1673ffffffffffffffffffffffffffffffffffffffff1681526020019081526020016000206001019080519060200190610cdf929190610cfe565b505050565b604051806040016040528060608152602001606081525090565b828054610d0a906115eb565b90600052602060002090601f016020900481019282610d2c5760008555610d73565b82601f10610d4557805160ff1916838001178555610d73565b82800160010185558215610d73579182015b82811115610d72578251825591602001919060010190610d57565b5b509050610d809190610e49565b5090565b828054828255906000526020600020908101928215610dfd579160200282015b82811115610dfc5782518260006101000a81548173ffffffffffffffffffffffffffffffffffffffff021916908373ffffffffffffffffffffffffffffffffffffffff16021790555091602001919060010190610da4565b5b509050610e0a9190610e49565b5090565b5080546000825590600052602060002090810190610e2c9190610e49565b50565b604051806040016040528060608152602001606081525090565b5b80821115610e62576000816000905550600101610e4a565b5090565b6000610e79610e7484611448565b611423565b905082815260208101848484011115610e9157600080fd5b610e9c8482856115a9565b509392505050565b600082601f830112610eb557600080fd5b8135610ec5848260208601610e66565b91505092915050565b600081359050610edd81611787565b92915050565b600060208284031215610ef557600080fd5b600082013567ffffffffffffffff811115610f0f57600080fd5b610f1b84828501610ea4565b91505092915050565b60008060408385031215610f3757600080fd5b600083013567ffffffffffffffff811115610f5157600080fd5b610f5d85828601610ea4565b925050602083013567ffffffffffffffff811115610f7a57600080fd5b610f8685828601610ea4565b9150509250929050565b600060208284031215610fa257600080fd5b6000610fb084828501610ece565b91505092915050565b60008060408385031215610fcc57600080fd5b6000610fda85828601610ece565b925050602083013567ffffffffffffffff811115610ff757600080fd5b61100385828601610ea4565b9150509250929050565b60006110198383611039565b60208301905092915050565b60006110318383611271565b905092915050565b61104281611561565b82525050565b61105181611561565b82525050565b6000611062826114ae565b61106c81856114e9565b935061107783611479565b8060005b838110156110a857815161108f888261100d565b975061109a836114cf565b92505060018101905061107b565b5085935050505092915050565b60006110c0826114b9565b6110ca81856114fa565b9350836020820285016110dc85611489565b8060005b8581101561111857848403895281516110f98582611025565b9450611104836114dc565b925060208a019950506001810190506110e0565b50829750879550505050505092915050565b61113381611573565b82525050565b6000611144826114c4565b61114e818561150b565b935061115e8185602086016115b8565b61116781611724565b840191505092915050565b600061117d826114c4565b611187818561151c565b93506111978185602086016115b8565b6111a081611724565b840191505092915050565b600081546111b8816115eb565b6111c2818661151c565b945060018216600081146111dd57600181146111ef57611222565b60ff1983168652602086019350611222565b6111f885611499565b60005b8381101561121a578154818901526001820191506020810190506111fb565b808801955050505b50505092915050565b600061123860178361151c565b915061124382611735565b602082019050919050565b600061125b60138361151c565b91506112668261175e565b602082019050919050565b6000604083016000830151848203600086015261128e8282611139565b915050602083015184820360208601526112a88282611057565b9150508091505092915050565b600060408301600083015184820360008601526112d28282611139565b915050602083015184820360208601526112ec8282611139565b9150508091505092915050565b6113028161159f565b82525050565b6000602082019050818103600083015261132281846110b5565b905092915050565b600060208201905061133f600083018461112a565b92915050565b6000602082019050818103600083015261135e8161122b565b9050919050565b6000602082019050818103600083015261137e8161124e565b9050919050565b6000602082019050818103600083015261139f81846112b5565b905092915050565b60006040820190506113bc60008301856112f9565b81810360208301526113ce8184611172565b90509392505050565b60006080820190506113ec60008301876112f9565b81810360208301526113fe81866111ab565b905061140d6040830185611048565b61141a60608301846112f9565b95945050505050565b600061142d61143e565b9050611439828261161d565b919050565b6000604051905090565b600067ffffffffffffffff821115611463576114626116f5565b5b61146c82611724565b9050602081019050919050565b6000819050602082019050919050565b6000819050602082019050919050565b60008190508160005260206000209050919050565b600081519050919050565b600081519050919050565b600081519050919050565b6000602082019050919050565b6000602082019050919050565b600082825260208201905092915050565b600082825260208201905092915050565b600082825260208201905092915050565b600082825260208201905092915050565b60006115388261159f565b91506115438361159f565b92508282101561155657611555611697565b5b828203905092915050565b600061156c8261157f565b9050919050565b60008115159050919050565b600073ffffffffffffffffffffffffffffffffffffffff82169050919050565b6000819050919050565b82818337600083830152505050565b60005b838110156115d65780820151818401526020810190506115bb565b838111156115e5576000848401525b50505050565b6000600282049050600182168061160357607f821691505b60208210811415611617576116166116c6565b5b50919050565b61162682611724565b810181811067ffffffffffffffff82111715611645576116446116f5565b5b80604052505050565b60006116598261159f565b91507fffffffffffffffffffffffffffffffffffffffffffffffffffffffffffffffff82141561168c5761168b611697565b5b600182019050919050565b7f4e487b7100000000000000000000000000000000000000000000000000000000600052601160045260246000fd5b7f4e487b7100000000000000000000000000000000000000000000000000000000600052602260045260246000fd5b7f4e487b7100000000000000000000000000000000000000000000000000000000600052604160045260246000fd5b6000601f19601f8301169050919050565b7f7573657220616c72656164792072656769737465726564000000000000000000600082015250565b7f75736572206e6f74207265676973746572656400000000000000000000000000600082015250565b6117908161159f565b811461179b57600080fd5b5056fea26469706673582212207b789de206b20cabfc59ef5a241679bc1a2c426782a8a24e5dce60583d58716264736f6c63430008040033",
  "immutableReferences": {},
  "source": "// SPDX-License-Identifier: MIT\r\npragma solidity 0.8.4;\r\n\r\n\r\ncontract Maticulum {\r\n    \r\n   struct User{\r\n       string name;\r\n       string firstname;\r\n   }\r\n\r\n    struct School {\r\n        string name;\r\n        address[] validators;\r\n    }\r\n   \r\n   mapping(address => User) Users;\r\n   mapping(address => bool) UserRegistered;\r\n\r\n    School[] schools;\r\n    uint256[] schoolsToValidate;\r\n\r\n\r\n    event SchoolAdded(uint256 id, string name);\r\n    event SchoolUpdated(uint256 id, string name);\r\n    event SchoolValidated(uint256 id, string name, address validator, uint256 count);\r\n\r\n   \r\n   function Register(string memory name, string memory firstname) external{\r\n       require(!UserRegistered[msg.sender], \"user already registered\");\r\n       UserRegistered[msg.sender] = true;\r\n       Users[msg.sender] = User(name, firstname);\r\n   }\r\n   \r\n   function GetUser() external view returns( User memory){\r\n       require(UserRegistered[msg.sender], \"user not registered\");\r\n       return Users[msg.sender];\r\n   }\r\n   \r\n   function UpdateUser(string memory name, string memory firstname) external{\r\n       require(UserRegistered[msg.sender], \"user not registered\");\r\n       Users[msg.sender].name = name;\r\n       Users[msg.sender].firstname = firstname;\r\n   }\r\n   \r\n   function isRegistered() external view returns(bool){\r\n       return UserRegistered[msg.sender];\r\n   }\r\n\r\n\r\n    function addSchool(string memory _name) external /* only(Admin) */ {\r\n        School memory school;\r\n        school.name = _name;\r\n\r\n        schools.push(school);\r\n\r\n        uint256 id = schools.length - 1;\r\n        schoolsToValidate.push(id);\r\n        \r\n        emit SchoolAdded(id, _name);\r\n    }\r\n\r\n\r\n    function updateSchool(uint256 _id, string memory _name) external /* only(Admin) */ {\r\n        School storage school = schools[_id];\r\n        school.name = _name;\r\n        delete school.validators;\r\n\r\n        schoolsToValidate.push(_id);\r\n\r\n        emit SchoolUpdated(_id, _name);\r\n    }\r\n\r\n\r\n    function validateSchool(uint256 _id) external /* only(Admin) */ {\r\n        School storage school = schools[_id];\r\n        \r\n        school.validators.push(msg.sender);\r\n        if (school.validators.length >= 3) {\r\n            for (uint256 i = 0; i < schoolsToValidate.length; i++) {\r\n                if (schoolsToValidate[i] == _id) {\r\n                    schoolsToValidate[i] = schoolsToValidate[schoolsToValidate.length - 1];\r\n                    schoolsToValidate.pop();\r\n                    break;\r\n                }\r\n            }\r\n        }\r\n        \r\n        emit SchoolValidated(_id, school.name, msg.sender, school.validators.length);\r\n    }\r\n\r\n\r\n    function getSchoolsWaitingValidation() external view /* only(Admin) */ returns (School[] memory needValidation) {\r\n        for (uint256 i = 0; i < schoolsToValidate.length; i++) {\r\n            needValidation[i] = schools[schoolsToValidate[i]];\r\n        }\r\n    }\r\n\r\n}\r\n",
  "sourcePath": "C:/ws/alyra/maticulum/contracts/Maticulum.sol",
  "compiler": {
    "name": "solc",
    "version": "0.8.4+commit.c7e474f2.Emscripten.clang"
  },
  "schemaVersion": "3.4.1",
  "updatedAt": "2021-07-04T15:44:18.911Z",
  "networkType": "ethereum",
  "devdoc": {
    "kind": "dev",
    "methods": {},
    "version": 1
  },
  "userdoc": {
    "kind": "user",
    "methods": {},
    "version": 1
  }
}