{
  "contractName": "Maticulum",
  "abi": [
    {
      "anonymous": false,
      "inputs": [
        {
          "indexed": true,
          "internalType": "address",
          "name": "oldOwner",
          "type": "address"
        },
        {
          "indexed": true,
          "internalType": "address",
          "name": "newOwner",
          "type": "address"
        }
      ],
      "name": "OwnerSet",
      "type": "event"
    },
    {
      "anonymous": false,
      "inputs": [
        {
          "indexed": false,
          "internalType": "uint256",
          "name": "id",
          "type": "uint256"
        },
        {
          "indexed": false,
          "internalType": "string",
          "name": "name",
          "type": "string"
        }
      ],
      "name": "SchoolAdded",
      "type": "event"
    },
    {
      "anonymous": false,
      "inputs": [
        {
          "indexed": false,
          "internalType": "uint256",
          "name": "id",
          "type": "uint256"
        },
        {
          "indexed": false,
          "internalType": "string",
          "name": "name",
          "type": "string"
        }
      ],
      "name": "SchoolUpdated",
      "type": "event"
    },
    {
      "anonymous": false,
      "inputs": [
        {
          "indexed": false,
          "internalType": "uint256",
          "name": "id",
          "type": "uint256"
        },
        {
          "indexed": false,
          "internalType": "string",
          "name": "name",
          "type": "string"
        },
        {
          "indexed": false,
          "internalType": "address",
          "name": "validator",
          "type": "address"
        },
        {
          "indexed": false,
          "internalType": "uint256",
          "name": "count",
          "type": "uint256"
        }
      ],
      "name": "SchoolValidated",
      "type": "event"
    },
    {
      "inputs": [
        {
          "internalType": "address",
          "name": "newOwner",
          "type": "address"
        }
      ],
      "name": "changeOwner",
      "outputs": [],
      "stateMutability": "nonpayable",
      "type": "function"
    },
    {
      "inputs": [],
      "name": "getOwner",
      "outputs": [
        {
          "internalType": "address",
          "name": "",
          "type": "address"
        }
      ],
      "stateMutability": "view",
      "type": "function",
      "constant": true
    },
    {
      "inputs": [
        {
          "internalType": "uint256",
          "name": "",
          "type": "uint256"
        }
      ],
      "name": "schools",
      "outputs": [
        {
          "internalType": "string",
          "name": "name",
          "type": "string"
        }
      ],
      "stateMutability": "view",
      "type": "function",
      "constant": true
    },
    {
      "inputs": [
        {
          "internalType": "address",
          "name": "userAddress",
          "type": "address"
        }
      ],
      "name": "whitelist",
      "outputs": [],
      "stateMutability": "nonpayable",
      "type": "function"
    },
    {
      "inputs": [
        {
          "internalType": "address",
          "name": "userAddress",
          "type": "address"
        },
        {
          "internalType": "enum Maticulum.role",
          "name": "userRole",
          "type": "uint8"
        }
      ],
      "name": "whitelistByAdmin",
      "outputs": [],
      "stateMutability": "nonpayable",
      "type": "function"
    },
    {
      "inputs": [
        {
          "components": [
            {
              "components": [
                {
                  "internalType": "string",
                  "name": "name",
                  "type": "string"
                },
                {
                  "internalType": "string",
                  "name": "firstname",
                  "type": "string"
                },
                {
                  "internalType": "string",
                  "name": "matricule",
                  "type": "string"
                },
                {
                  "internalType": "enum Maticulum.role",
                  "name": "userRole",
                  "type": "uint8"
                }
              ],
              "internalType": "struct Maticulum.user",
              "name": "userInfo",
              "type": "tuple"
            },
            {
              "internalType": "address",
              "name": "userAddress",
              "type": "address"
            }
          ],
          "internalType": "struct Maticulum.userData[]",
          "name": "userDatas",
          "type": "tuple[]"
        }
      ],
      "name": "whitelistByAdmin",
      "outputs": [],
      "stateMutability": "nonpayable",
      "type": "function"
    },
    {
      "inputs": [
        {
          "internalType": "string",
          "name": "name",
          "type": "string"
        },
        {
          "internalType": "string",
          "name": "firstname",
          "type": "string"
        }
      ],
      "name": "userModifications",
      "outputs": [],
      "stateMutability": "nonpayable",
      "type": "function"
    },
    {
      "inputs": [],
      "name": "getUser",
      "outputs": [
        {
          "components": [
            {
              "internalType": "string",
              "name": "name",
              "type": "string"
            },
            {
              "internalType": "string",
              "name": "firstname",
              "type": "string"
            },
            {
              "internalType": "string",
              "name": "matricule",
              "type": "string"
            },
            {
              "internalType": "enum Maticulum.role",
              "name": "userRole",
              "type": "uint8"
            }
          ],
          "internalType": "struct Maticulum.user",
          "name": "",
          "type": "tuple"
        }
      ],
      "stateMutability": "view",
      "type": "function",
      "constant": true
    },
    {
      "inputs": [],
      "name": "isRegistered",
      "outputs": [
        {
          "internalType": "bool",
          "name": "",
          "type": "bool"
        }
      ],
      "stateMutability": "view",
      "type": "function",
      "constant": true
    },
    {
      "inputs": [
        {
          "internalType": "string",
          "name": "_name",
          "type": "string"
        }
      ],
      "name": "addSchool",
      "outputs": [
        {
          "internalType": "uint256",
          "name": "",
          "type": "uint256"
        }
      ],
      "stateMutability": "nonpayable",
      "type": "function"
    },
    {
      "inputs": [
        {
          "internalType": "uint256",
          "name": "_id",
          "type": "uint256"
        },
        {
          "internalType": "string",
          "name": "_name",
          "type": "string"
        }
      ],
      "name": "updateSchool",
      "outputs": [],
      "stateMutability": "nonpayable",
      "type": "function"
    },
    {
      "inputs": [
        {
          "internalType": "uint256",
          "name": "_id",
          "type": "uint256"
        }
      ],
      "name": "validateSchool",
      "outputs": [],
      "stateMutability": "nonpayable",
      "type": "function"
    },
    {
      "inputs": [],
      "name": "getNbSchools",
      "outputs": [
        {
          "internalType": "uint256",
          "name": "length",
          "type": "uint256"
        }
      ],
      "stateMutability": "view",
      "type": "function",
      "constant": true
    },
    {
      "inputs": [
        {
          "internalType": "uint256",
          "name": "_id",
          "type": "uint256"
        }
      ],
      "name": "getSchool",
      "outputs": [
        {
          "internalType": "string",
          "name": "name",
          "type": "string"
        },
        {
          "internalType": "address[]",
          "name": "validators",
          "type": "address[]"
        }
      ],
      "stateMutability": "view",
      "type": "function",
      "constant": true
    },
    {
      "inputs": [],
      "name": "getSchoolsWaitingValidation",
      "outputs": [
        {
          "components": [
            {
              "internalType": "string",
              "name": "name",
              "type": "string"
            },
            {
              "internalType": "address[]",
              "name": "validators",
              "type": "address[]"
            }
          ],
          "internalType": "struct Maticulum.School[]",
          "name": "needValidation",
          "type": "tuple[]"
        }
      ],
      "stateMutability": "view",
      "type": "function",
      "constant": true
    }
  ],
  "bytecode": "0x608060405234801561001057600080fd5b50336000806101000a81548173ffffffffffffffffffffffffffffffffffffffff021916908373ffffffffffffffffffffffffffffffffffffffff16021790555060008054906101000a900473ffffffffffffffffffffffffffffffffffffffff1673ffffffffffffffffffffffffffffffffffffffff16600073ffffffffffffffffffffffffffffffffffffffff167f342827c97908e5e2f71151c08502a66d44b6f758e3ac2f1de95f02eb95f0a73560405160405180910390a3612e53806100db6000396000f3fe608060405234801561001057600080fd5b50600436106100f55760003560e01c8063893d20e811610097578063c74eb24911610066578063c74eb24914610260578063cd2df01f1461027c578063d38e7ea914610298578063eb365bf2146102c9576100f5565b8063893d20e8146101ec5780639b19251a1461020a578063a01b76bf14610226578063a6f9dae114610244576100f5565b8063396d73fd116100d3578063396d73fd14610166578063521e966c14610182578063719c0d041461019e578063832880e7146101ce576100f5565b8063213f1416146100fa57806322366844146101185780632ab47acb14610136575b600080fd5b6101026102e5565b60405161010f91906127fe565b60405180910390f35b610120610509565b60405161012d9190612820565b60405180910390f35b610150600480360381019061014b9190612301565b61055d565b60405161015d9190612916565b60405180910390f35b610180600480360381019061017b91906123ae565b610745565b005b61019c600480360381019061019791906123d7565b610aad565b005b6101b860048036038101906101b391906123ae565b610bee565b6040516101c5919061283b565b60405180910390f35b6101d6610ca4565b6040516101e391906128f4565b60405180910390f35b6101f4610fc4565b60405161020191906127e3565b60405180910390f35b610224600480360381019061021f919061225b565b610fed565b005b61022e61124c565b60405161023b9190612916565b60405180910390f35b61025e6004803603810190610259919061225b565b611259565b005b61027a60048036038101906102759190612284565b6113a4565b005b61029660048036038101906102919190612342565b611944565b005b6102b260048036038101906102ad91906123ae565b611a82565b6040516102c092919061285d565b60405180910390f35b6102e360048036038101906102de91906122c0565b611bf7565b005b606060005b60048054905081101561050557600360048281548110610333577f4e487b7100000000000000000000000000000000000000000000000000000000600052603260045260246000fd5b906000526020600020015481548110610375577f4e487b7100000000000000000000000000000000000000000000000000000000600052603260045260246000fd5b906000526020600020906002020160405180604001604052908160008201805461039e90612bd7565b80601f01602080910402602001604051908101604052809291908181526020018280546103ca90612bd7565b80156104175780601f106103ec57610100808354040283529160200191610417565b820191906000526020600020905b8154815290600101906020018083116103fa57829003601f168201915b50505050508152602001600182018054806020026020016040519081016040528092919081815260200182805480156104a557602002820191906000526020600020905b8160009054906101000a900473ffffffffffffffffffffffffffffffffffffffff1673ffffffffffffffffffffffffffffffffffffffff168152602001906001019080831161045b575b5050505050815250508282815181106104e7577f4e487b7100000000000000000000000000000000000000000000000000000000600052603260045260246000fd5b602002602001018190525080806104fd90612c3a565b9150506102ea565b5090565b6000600260003373ffffffffffffffffffffffffffffffffffffffff1673ffffffffffffffffffffffffffffffffffffffff16815260200190815260200160002060009054906101000a900460ff16905090565b600080600167ffffffffffffffff8111156105a1577f4e487b7100000000000000000000000000000000000000000000000000000000600052604160045260246000fd5b6040519080825280602002602001820160405280156105cf5781602001602082028036833780820191505090505b509050338160008151811061060d577f4e487b7100000000000000000000000000000000000000000000000000000000600052603260045260246000fd5b602002602001019073ffffffffffffffffffffffffffffffffffffffff16908173ffffffffffffffffffffffffffffffffffffffff16815250506003604051806040016040528085815260200183815250908060018154018082558091505060019003906000526020600020906002020160009091909190915060008201518160000190805190602001906106a3929190611e36565b5060208201518160010190805190602001906106c0929190611ebc565b505050600060016003805490506106d79190612af4565b905060048190806001815401808255809150506001900390600052602060002001600090919091909150557f01d662eb094eae751a9e8c78515d3462dea52d84eaa6616e2ddeebe481e56e9b8185604051610733929190612931565b60405180910390a18092505050919050565b600060038281548110610781577f4e487b7100000000000000000000000000000000000000000000000000000000600052603260045260246000fd5b9060005260206000209060020201905060005b816001018054905081101561088b573373ffffffffffffffffffffffffffffffffffffffff168260010182815481106107f6577f4e487b7100000000000000000000000000000000000000000000000000000000600052603260045260246000fd5b9060005260206000200160009054906101000a900473ffffffffffffffffffffffffffffffffffffffff1673ffffffffffffffffffffffffffffffffffffffff161415610878576040517f08c379a000000000000000000000000000000000000000000000000000000000815260040161086f906128b4565b60405180910390fd5b808061088390612c3a565b915050610794565b5080600101339080600181540180825580915050600190039060005260206000200160009091909190916101000a81548173ffffffffffffffffffffffffffffffffffffffff021916908373ffffffffffffffffffffffffffffffffffffffff1602179055506003816001018054905010610a625760005b600480549050811015610a6057826004828154811061094b577f4e487b7100000000000000000000000000000000000000000000000000000000600052603260045260246000fd5b90600052602060002001541415610a4d57600460016004805490506109709190612af4565b815481106109a7577f4e487b7100000000000000000000000000000000000000000000000000000000600052603260045260246000fd5b9060005260206000200154600482815481106109ec577f4e487b7100000000000000000000000000000000000000000000000000000000600052603260045260246000fd5b90600052602060002001819055506004805480610a32577f4e487b7100000000000000000000000000000000000000000000000000000000600052603160045260246000fd5b60019003818190600052602060002001600090559055610a60565b8080610a5890612c3a565b915050610903565b505b7f612af120b0488db1855887593be0f7cb0a4299306f7b6fa63cbaaef364a73fb58282600001338460010180549050604051610aa19493929190612961565b60405180910390a15050565b600060038381548110610ae9577f4e487b7100000000000000000000000000000000000000000000000000000000600052603260045260246000fd5b9060005260206000209060020201905081816000019080519060200190610b11929190611e36565b50806001016000610b229190611f46565b80600101339080600181540180825580915050600190039060005260206000200160009091909190916101000a81548173ffffffffffffffffffffffffffffffffffffffff021916908373ffffffffffffffffffffffffffffffffffffffff16021790555060048390806001815401808255809150506001900390600052602060002001600090919091909150557ffb771c013f868d6e1489c30b4f2e6ce2ae457350176853d17c639227808b0a198383604051610be1929190612931565b60405180910390a1505050565b60038181548110610bfe57600080fd5b9060005260206000209060020201600091509050806000018054610c2190612bd7565b80601f0160208091040260200160405190810160405280929190818152602001828054610c4d90612bd7565b8015610c9a5780601f10610c6f57610100808354040283529160200191610c9a565b820191906000526020600020905b815481529060010190602001808311610c7d57829003601f168201915b5050505050905081565b610cac611f67565b600260003373ffffffffffffffffffffffffffffffffffffffff1673ffffffffffffffffffffffffffffffffffffffff16815260200190815260200160002060009054906101000a900460ff16610d38576040517f08c379a0000000000000000000000000000000000000000000000000000000008152600401610d2f906128d4565b60405180910390fd5b600160003373ffffffffffffffffffffffffffffffffffffffff1673ffffffffffffffffffffffffffffffffffffffff168152602001908152602001600020604051806080016040529081600082018054610d9290612bd7565b80601f0160208091040260200160405190810160405280929190818152602001828054610dbe90612bd7565b8015610e0b5780601f10610de057610100808354040283529160200191610e0b565b820191906000526020600020905b815481529060010190602001808311610dee57829003601f168201915b50505050508152602001600182018054610e2490612bd7565b80601f0160208091040260200160405190810160405280929190818152602001828054610e5090612bd7565b8015610e9d5780601f10610e7257610100808354040283529160200191610e9d565b820191906000526020600020905b815481529060010190602001808311610e8057829003601f168201915b50505050508152602001600282018054610eb690612bd7565b80601f0160208091040260200160405190810160405280929190818152602001828054610ee290612bd7565b8015610f2f5780601f10610f0457610100808354040283529160200191610f2f565b820191906000526020600020905b815481529060010190602001808311610f1257829003601f168201915b505050505081526020016003820160009054906101000a900460ff166002811115610f83577f4e487b7100000000000000000000000000000000000000000000000000000000600052602160045260246000fd5b6002811115610fbb577f4e487b7100000000000000000000000000000000000000000000000000000000600052602160045260246000fd5b81525050905090565b60008060009054906101000a900473ffffffffffffffffffffffffffffffffffffffff16905090565b60008054906101000a900473ffffffffffffffffffffffffffffffffffffffff1673ffffffffffffffffffffffffffffffffffffffff163373ffffffffffffffffffffffffffffffffffffffff161461107b576040517f08c379a000000000000000000000000000000000000000000000000000000000815260040161107290612894565b60405180910390fd5b6001600260008373ffffffffffffffffffffffffffffffffffffffff1673ffffffffffffffffffffffffffffffffffffffff16815260200190815260200160002060006101000a81548160ff021916908315150217905550604051806080016040528060405180602001604052806000815250815260200160405180602001604052806000815250815260200160405180602001604052806000815250815260200160006002811115611157577f4e487b7100000000000000000000000000000000000000000000000000000000600052602160045260246000fd5b815250600160008373ffffffffffffffffffffffffffffffffffffffff1673ffffffffffffffffffffffffffffffffffffffff16815260200190815260200160002060008201518160000190805190602001906111b5929190611e36565b5060208201518160010190805190602001906111d2929190611e36565b5060408201518160020190805190602001906111ef929190611e36565b5060608201518160030160006101000a81548160ff02191690836002811115611241577f4e487b7100000000000000000000000000000000000000000000000000000000600052602160045260246000fd5b021790555090505050565b6000600380549050905090565b60008054906101000a900473ffffffffffffffffffffffffffffffffffffffff1673ffffffffffffffffffffffffffffffffffffffff163373ffffffffffffffffffffffffffffffffffffffff16146112e7576040517f08c379a00000000000000000000000000000000000000000000000000000000081526004016112de90612894565b60405180910390fd5b8073ffffffffffffffffffffffffffffffffffffffff1660008054906101000a900473ffffffffffffffffffffffffffffffffffffffff1673ffffffffffffffffffffffffffffffffffffffff167f342827c97908e5e2f71151c08502a66d44b6f758e3ac2f1de95f02eb95f0a73560405160405180910390a3806000806101000a81548173ffffffffffffffffffffffffffffffffffffffff021916908373ffffffffffffffffffffffffffffffffffffffff16021790555050565b600260003373ffffffffffffffffffffffffffffffffffffffff1673ffffffffffffffffffffffffffffffffffffffff16815260200190815260200160002060009054906101000a900460ff16611430576040517f08c379a0000000000000000000000000000000000000000000000000000000008152600401611427906128d4565b60405180910390fd5b6000600160003373ffffffffffffffffffffffffffffffffffffffff1673ffffffffffffffffffffffffffffffffffffffff16815260200190815260200160002060405180608001604052908160008201805461148c90612bd7565b80601f01602080910402602001604051908101604052809291908181526020018280546114b890612bd7565b80156115055780601f106114da57610100808354040283529160200191611505565b820191906000526020600020905b8154815290600101906020018083116114e857829003601f168201915b5050505050815260200160018201805461151e90612bd7565b80601f016020809104026020016040519081016040528092919081815260200182805461154a90612bd7565b80156115975780601f1061156c57610100808354040283529160200191611597565b820191906000526020600020905b81548152906001019060200180831161157a57829003601f168201915b505050505081526020016002820180546115b090612bd7565b80601f01602080910402602001604051908101604052809291908181526020018280546115dc90612bd7565b80156116295780601f106115fe57610100808354040283529160200191611629565b820191906000526020600020905b81548152906001019060200180831161160c57829003601f168201915b505050505081526020016003820160009054906101000a900460ff16600281111561167d577f4e487b7100000000000000000000000000000000000000000000000000000000600052602160045260246000fd5b60028111156116b5577f4e487b7100000000000000000000000000000000000000000000000000000000600052602160045260246000fd5b815250509050600060028111156116f5577f4e487b7100000000000000000000000000000000000000000000000000000000600052602160045260246000fd5b81606001516002811115611732577f4e487b7100000000000000000000000000000000000000000000000000000000600052602160045260246000fd5b14611772576040517f08c379a0000000000000000000000000000000000000000000000000000000008152600401611769906128d4565b60405180910390fd5b6001600260008573ffffffffffffffffffffffffffffffffffffffff1673ffffffffffffffffffffffffffffffffffffffff16815260200190815260200160002060006101000a81548160ff021916908315150217905550604051806080016040528060405180602001604052806000815250815260200160405180602001604052806000815250815260200160405180602001604052806000815250815260200183600281111561184d577f4e487b7100000000000000000000000000000000000000000000000000000000600052602160045260246000fd5b815250600160008573ffffffffffffffffffffffffffffffffffffffff1673ffffffffffffffffffffffffffffffffffffffff16815260200190815260200160002060008201518160000190805190602001906118ab929190611e36565b5060208201518160010190805190602001906118c8929190611e36565b5060408201518160020190805190602001906118e5929190611e36565b5060608201518160030160006101000a81548160ff02191690836002811115611937577f4e487b7100000000000000000000000000000000000000000000000000000000600052602160045260246000fd5b0217905550905050505050565b600260003373ffffffffffffffffffffffffffffffffffffffff1673ffffffffffffffffffffffffffffffffffffffff16815260200190815260200160002060009054906101000a900460ff166119d0576040517f08c379a00000000000000000000000000000000000000000000000000000000081526004016119c7906128d4565b60405180910390fd5b81600160003373ffffffffffffffffffffffffffffffffffffffff1673ffffffffffffffffffffffffffffffffffffffff1681526020019081526020016000206000019080519060200190611a26929190611e36565b5080600160003373ffffffffffffffffffffffffffffffffffffffff1673ffffffffffffffffffffffffffffffffffffffff1681526020019081526020016000206001019080519060200190611a7d929190611e36565b505050565b606080600060038481548110611ac1577f4e487b7100000000000000000000000000000000000000000000000000000000600052603260045260246000fd5b906000526020600020906002020190508060000181600101818054611ae590612bd7565b80601f0160208091040260200160405190810160405280929190818152602001828054611b1190612bd7565b8015611b5e5780601f10611b3357610100808354040283529160200191611b5e565b820191906000526020600020905b815481529060010190602001808311611b4157829003601f168201915b5050505050915080805480602002602001604051908101604052809291908181526020018280548015611be657602002820191906000526020600020905b8160009054906101000a900473ffffffffffffffffffffffffffffffffffffffff1673ffffffffffffffffffffffffffffffffffffffff1681526020019060010190808311611b9c575b505050505090509250925050915091565b60005b8151811015611e32576000828281518110611c3e577f4e487b7100000000000000000000000000000000000000000000000000000000600052603260045260246000fd5b60200260200101519050604051806080016040528060405180602001604052806000815250815260200160405180602001604052806000815250815260200182600001516040015181526020018260000151606001516002811115611ccc577f4e487b7100000000000000000000000000000000000000000000000000000000600052602160045260246000fd5b81525060016000836020015173ffffffffffffffffffffffffffffffffffffffff1673ffffffffffffffffffffffffffffffffffffffff1681526020019081526020016000206000820151816000019080519060200190611d2e929190611e36565b506020820151816001019080519060200190611d4b929190611e36565b506040820151816002019080519060200190611d68929190611e36565b5060608201518160030160006101000a81548160ff02191690836002811115611dba577f4e487b7100000000000000000000000000000000000000000000000000000000600052602160045260246000fd5b0217905550905050600160026000836020015173ffffffffffffffffffffffffffffffffffffffff1673ffffffffffffffffffffffffffffffffffffffff16815260200190815260200160002060006101000a81548160ff021916908315150217905550508080611e2a90612c3a565b915050611bfa565b5050565b828054611e4290612bd7565b90600052602060002090601f016020900481019282611e645760008555611eab565b82601f10611e7d57805160ff1916838001178555611eab565b82800160010185558215611eab579182015b82811115611eaa578251825591602001919060010190611e8f565b5b509050611eb89190611fc7565b5090565b828054828255906000526020600020908101928215611f35579160200282015b82811115611f345782518260006101000a81548173ffffffffffffffffffffffffffffffffffffffff021916908373ffffffffffffffffffffffffffffffffffffffff16021790555091602001919060010190611edc565b5b509050611f429190611fc7565b5090565b5080546000825590600052602060002090810190611f649190611fc7565b50565b604051806080016040528060608152602001606081526020016060815260200160006002811115611fc1577f4e487b7100000000000000000000000000000000000000000000000000000000600052602160045260246000fd5b81525090565b5b80821115611fe0576000816000905550600101611fc8565b5090565b6000611ff7611ff2846129d2565b6129ad565b9050808382526020820190508285602086028201111561201657600080fd5b60005b8581101561206057813567ffffffffffffffff81111561203857600080fd5b8086016120458982612126565b85526020850194506020840193505050600181019050612019565b5050509392505050565b600061207d612078846129fe565b6129ad565b90508281526020810184848401111561209557600080fd5b6120a0848285612b95565b509392505050565b6000813590506120b781612ddf565b92915050565b600082601f8301126120ce57600080fd5b81356120de848260208601611fe4565b91505092915050565b6000813590506120f681612df6565b92915050565b600082601f83011261210d57600080fd5b813561211d84826020860161206a565b91505092915050565b60006040828403121561213857600080fd5b61214260406129ad565b9050600082013567ffffffffffffffff81111561215e57600080fd5b61216a8482850161218a565b600083015250602061217e848285016120a8565b60208301525092915050565b60006080828403121561219c57600080fd5b6121a660806129ad565b9050600082013567ffffffffffffffff8111156121c257600080fd5b6121ce848285016120fc565b600083015250602082013567ffffffffffffffff8111156121ee57600080fd5b6121fa848285016120fc565b602083015250604082013567ffffffffffffffff81111561221a57600080fd5b612226848285016120fc565b604083015250606061223a848285016120e7565b60608301525092915050565b60008135905061225581612e06565b92915050565b60006020828403121561226d57600080fd5b600061227b848285016120a8565b91505092915050565b6000806040838503121561229757600080fd5b60006122a5858286016120a8565b92505060206122b6858286016120e7565b9150509250929050565b6000602082840312156122d257600080fd5b600082013567ffffffffffffffff8111156122ec57600080fd5b6122f8848285016120bd565b91505092915050565b60006020828403121561231357600080fd5b600082013567ffffffffffffffff81111561232d57600080fd5b612339848285016120fc565b91505092915050565b6000806040838503121561235557600080fd5b600083013567ffffffffffffffff81111561236f57600080fd5b61237b858286016120fc565b925050602083013567ffffffffffffffff81111561239857600080fd5b6123a4858286016120fc565b9150509250929050565b6000602082840312156123c057600080fd5b60006123ce84828501612246565b91505092915050565b600080604083850312156123ea57600080fd5b60006123f885828601612246565b925050602083013567ffffffffffffffff81111561241557600080fd5b612421858286016120fc565b9150509250929050565b60006124378383612457565b60208301905092915050565b600061244f838361271f565b905092915050565b61246081612b28565b82525050565b61246f81612b28565b82525050565b600061248082612a64565b61248a8185612a9f565b935061249583612a2f565b8060005b838110156124c65781516124ad888261242b565b97506124b883612a85565b925050600181019050612499565b5085935050505092915050565b60006124de82612a64565b6124e88185612ab0565b93506124f383612a2f565b8060005b8381101561252457815161250b888261242b565b975061251683612a85565b9250506001810190506124f7565b5085935050505092915050565b600061253c82612a6f565b6125468185612ac1565b93508360208202850161255885612a3f565b8060005b8581101561259457848403895281516125758582612443565b945061258083612a92565b925060208a0199505060018101905061255c565b50829750879550505050505092915050565b6125af81612b3a565b82525050565b6125be81612b83565b82525050565b60006125cf82612a7a565b6125d98185612ad2565b93506125e9818560208601612ba4565b6125f281612d3f565b840191505092915050565b600061260882612a7a565b6126128185612ae3565b9350612622818560208601612ba4565b61262b81612d3f565b840191505092915050565b6000815461264381612bd7565b61264d8186612ae3565b94506001821660008114612668576001811461267a576126ad565b60ff19831686526020860193506126ad565b61268385612a4f565b60005b838110156126a557815481890152600182019150602081019050612686565b808801955050505b50505092915050565b60006126c3601383612ae3565b91506126ce82612d50565b602082019050919050565b60006126e6601f83612ae3565b91506126f182612d79565b602082019050919050565b6000612709601383612ae3565b915061271482612da2565b602082019050919050565b6000604083016000830151848203600086015261273c82826125c4565b915050602083015184820360208601526127568282612475565b9150508091505092915050565b6000608083016000830151848203600086015261278082826125c4565b9150506020830151848203602086015261279a82826125c4565b915050604083015184820360408601526127b482826125c4565b91505060608301516127c960608601826125b5565b508091505092915050565b6127dd81612b79565b82525050565b60006020820190506127f86000830184612466565b92915050565b600060208201905081810360008301526128188184612531565b905092915050565b600060208201905061283560008301846125a6565b92915050565b6000602082019050818103600083015261285581846125fd565b905092915050565b6000604082019050818103600083015261287781856125fd565b9050818103602083015261288b81846124d3565b90509392505050565b600060208201905081810360008301526128ad816126b6565b9050919050565b600060208201905081810360008301526128cd816126d9565b9050919050565b600060208201905081810360008301526128ed816126fc565b9050919050565b6000602082019050818103600083015261290e8184612763565b905092915050565b600060208201905061292b60008301846127d4565b92915050565b600060408201905061294660008301856127d4565b818103602083015261295881846125fd565b90509392505050565b600060808201905061297660008301876127d4565b81810360208301526129888186612636565b90506129976040830185612466565b6129a460608301846127d4565b95945050505050565b60006129b76129c8565b90506129c38282612c09565b919050565b6000604051905090565b600067ffffffffffffffff8211156129ed576129ec612d10565b5b602082029050602081019050919050565b600067ffffffffffffffff821115612a1957612a18612d10565b5b612a2282612d3f565b9050602081019050919050565b6000819050602082019050919050565b6000819050602082019050919050565b60008190508160005260206000209050919050565b600081519050919050565b600081519050919050565b600081519050919050565b6000602082019050919050565b6000602082019050919050565b600082825260208201905092915050565b600082825260208201905092915050565b600082825260208201905092915050565b600082825260208201905092915050565b600082825260208201905092915050565b6000612aff82612b79565b9150612b0a83612b79565b925082821015612b1d57612b1c612c83565b5b828203905092915050565b6000612b3382612b59565b9050919050565b60008115159050919050565b6000819050612b5482612dcb565b919050565b600073ffffffffffffffffffffffffffffffffffffffff82169050919050565b6000819050919050565b6000612b8e82612b46565b9050919050565b82818337600083830152505050565b60005b83811015612bc2578082015181840152602081019050612ba7565b83811115612bd1576000848401525b50505050565b60006002820490506001821680612bef57607f821691505b60208210811415612c0357612c02612ce1565b5b50919050565b612c1282612d3f565b810181811067ffffffffffffffff82111715612c3157612c30612d10565b5b80604052505050565b6000612c4582612b79565b91507fffffffffffffffffffffffffffffffffffffffffffffffffffffffffffffffff821415612c7857612c77612c83565b5b600182019050919050565b7f4e487b7100000000000000000000000000000000000000000000000000000000600052601160045260246000fd5b7f4e487b7100000000000000000000000000000000000000000000000000000000600052602160045260246000fd5b7f4e487b7100000000000000000000000000000000000000000000000000000000600052602260045260246000fd5b7f4e487b7100000000000000000000000000000000000000000000000000000000600052604160045260246000fd5b6000601f19601f8301169050919050565b7f43616c6c6572206973206e6f74206f776e657200000000000000000000000000600082015250565b7f416c72656164792076616c696461746564206279207468697320757365722e00600082015250565b7f75736572206e6f74207265676973746572656400000000000000000000000000600082015250565b60038110612ddc57612ddb612cb2565b5b50565b612de881612b28565b8114612df357600080fd5b50565b60038110612e0357600080fd5b50565b612e0f81612b79565b8114612e1a57600080fd5b5056fea2646970667358221220b8593512d85c60b23b693135845c86679e556769d382c4ba19ae24864f6c786264736f6c63430008040033",
  "immutableReferences": {},
  "source": "// SPDX-License-Identifier: MIT\r\npragma solidity 0.8.4;\r\n\r\nimport \"./Owner.sol\";\r\n\r\ncontract Maticulum is Owner {\r\n    \r\n   enum role{\r\n       adminUniversity,\r\n       jury,\r\n       student\r\n   } \r\n   \r\n   struct user{\r\n       string name;\r\n       string firstname;\r\n       string matricule;\r\n       role userRole;\r\n   }\r\n   \r\n   struct School {\r\n        string name;\r\n        address[] validators;\r\n    }\r\n   \r\n   struct data{\r\n       string name;\r\n       string firstname;\r\n   }\r\n   \r\n   struct userData{\r\n       user userInfo;\r\n       address userAddress;\r\n   }\r\n   \r\n   mapping(address => user) Users;\r\n   mapping(address => bool) UserRegistered;\r\n   \r\n   School[] public schools;\r\n   uint256[] schoolsToValidate;\r\n   \r\n   event SchoolAdded(uint256 id, string name);\r\n   event SchoolUpdated(uint256 id, string name);\r\n   event SchoolValidated(uint256 id, string name, address validator, uint256 count);\r\n   \r\n   function whitelist(address userAddress) external isOwner{\r\n       UserRegistered[userAddress] = true;\r\n       Users[userAddress] = user('','','', role.adminUniversity);\r\n   }\r\n   \r\n   function whitelistByAdmin(address userAddress, role userRole) external{\r\n       require(UserRegistered[msg.sender], \"user not registered\");\r\n       user memory u = Users[msg.sender];\r\n       require(u.userRole == role.adminUniversity, \"user not registered\");\r\n       UserRegistered[userAddress] = true;\r\n       Users[userAddress] = user('','','', userRole);\r\n   }\r\n   \r\n   function whitelistByAdmin(userData[] memory userDatas) external{\r\n       for (uint i=0; i<userDatas.length; i++) {\r\n            userData memory u = userDatas[i];\r\n            Users[u.userAddress] = user('','',u.userInfo.matricule,u.userInfo.userRole);\r\n            UserRegistered[u.userAddress] = true;\r\n        }\r\n   }\r\n   \r\n   function userModifications(string memory name, string memory firstname) external{\r\n       require(UserRegistered[msg.sender], \"user not registered\");\r\n       Users[msg.sender].name = name;\r\n       Users[msg.sender].firstname = firstname;\r\n   }\r\n   \r\n   function getUser() external view returns(user memory){\r\n       require(UserRegistered[msg.sender], \"user not registered\");\r\n       return Users[msg.sender];\r\n   }\r\n   \r\n   function isRegistered() external view returns(bool){\r\n       return UserRegistered[msg.sender];\r\n   }\r\n   \r\n   function addSchool(string memory _name) external /* only(Admin) */ returns (uint256) {\r\n        address[] memory validators = new address[](1);\r\n        validators[0] = msg.sender;\r\n        schools.push(School(_name, validators));\r\n\r\n        uint256 id = schools.length - 1;\r\n        schoolsToValidate.push(id);\r\n        \r\n        emit SchoolAdded(id, _name);\r\n        return id;\r\n    }\r\n\r\n\r\n    function updateSchool(uint256 _id, string memory _name) external /* only(Admin) */ {\r\n        School storage school = schools[_id];\r\n        school.name = _name;\r\n        delete school.validators;\r\n        school.validators.push(msg.sender);\r\n\r\n        schoolsToValidate.push(_id);\r\n\r\n        emit SchoolUpdated(_id, _name);\r\n    }\r\n\r\n\r\n    function validateSchool(uint256 _id) external /* only(Admin) */ {\r\n        School storage school = schools[_id];\r\n\r\n        for (uint256 i = 0; i < school.validators.length; i++) {\r\n            if (school.validators[i] == msg.sender) {\r\n                revert(\"Already validated by this user.\");\r\n            }\r\n        }\r\n        \r\n        school.validators.push(msg.sender);\r\n        if (school.validators.length >= 3) {\r\n            for (uint256 i = 0; i < schoolsToValidate.length; i++) {\r\n                if (schoolsToValidate[i] == _id) {\r\n                    schoolsToValidate[i] = schoolsToValidate[schoolsToValidate.length - 1];\r\n                    schoolsToValidate.pop();\r\n                    break;\r\n                }\r\n            }\r\n        }\r\n        \r\n        emit SchoolValidated(_id, school.name, msg.sender, school.validators.length);\r\n    }\r\n\r\n\r\n    function getNbSchools() external view returns (uint256 length) {\r\n        return schools.length;\r\n    }\r\n\r\n\r\n    function getSchool(uint256 _id) external view returns (string memory name, address[] memory validators) {\r\n        School storage school = schools[_id];\r\n\r\n        return (school.name, school.validators);\r\n    }\r\n\r\n\r\n    function getSchoolsWaitingValidation() external view /* only(Admin) */ returns (School[] memory needValidation) {\r\n        for (uint256 i = 0; i < schoolsToValidate.length; i++) {\r\n            needValidation[i] = schools[schoolsToValidate[i]];\r\n        }\r\n    }\r\n}",
  "sourcePath": "C:/Node/Maticulum-master/contracts/Maticulum.sol",
  "compiler": {
    "name": "solc",
    "version": "0.8.4+commit.c7e474f2.Emscripten.clang"
  },
  "schemaVersion": "3.4.1",
  "updatedAt": "2021-07-05T08:55:51.331Z",
  "networkType": "ethereum",
  "devdoc": {
    "kind": "dev",
    "methods": {
      "changeOwner(address)": {
        "details": "Change owner",
        "params": {
          "newOwner": "address of new owner"
        }
      },
      "getOwner()": {
        "details": "Return owner address ",
        "returns": {
          "_0": "address of owner"
        }
      }
    },
    "version": 1
  },
  "userdoc": {
    "kind": "user",
    "methods": {},
    "version": 1
  }
}