{
  "contractName": "Maticulum",
  "abi": [
    {
      "inputs": [
        {
          "internalType": "string",
          "name": "name",
          "type": "string"
        },
        {
          "internalType": "string",
          "name": "firstname",
          "type": "string"
        }
      ],
      "name": "Register",
      "outputs": [],
      "stateMutability": "nonpayable",
      "type": "function"
    },
    {
      "inputs": [],
      "name": "GetUser",
      "outputs": [
        {
          "components": [
            {
              "internalType": "string",
              "name": "name",
              "type": "string"
            },
            {
              "internalType": "string",
              "name": "firstname",
              "type": "string"
            }
          ],
          "internalType": "struct Maticulum.User",
          "name": "",
          "type": "tuple"
        }
      ],
      "stateMutability": "view",
      "type": "function",
      "constant": true
    }
  ],
  "bytecode": "0x608060405234801561001057600080fd5b5061066f806100206000396000f3fe608060405234801561001057600080fd5b50600436106100365760003560e01c80635ee0f6541461003b578063d6192e2914610059575b600080fd5b610043610075565b6040516100509190610491565b60405180910390f35b610073600480360381019061006e91906103a8565b6101ef565b005b61007d610283565b6000803373ffffffffffffffffffffffffffffffffffffffff1673ffffffffffffffffffffffffffffffffffffffff1681526020019081526020016000206040518060400160405290816000820180546100d690610567565b80601f016020809104026020016040519081016040528092919081815260200182805461010290610567565b801561014f5780601f106101245761010080835404028352916020019161014f565b820191906000526020600020905b81548152906001019060200180831161013257829003601f168201915b5050505050815260200160018201805461016890610567565b80601f016020809104026020016040519081016040528092919081815260200182805461019490610567565b80156101e15780601f106101b6576101008083540402835291602001916101e1565b820191906000526020600020905b8154815290600101906020018083116101c457829003601f168201915b505050505081525050905090565b6040518060400160405280838152602001828152506000803373ffffffffffffffffffffffffffffffffffffffff1673ffffffffffffffffffffffffffffffffffffffff168152602001908152602001600020600082015181600001908051906020019061025e92919061029d565b50602082015181600101908051906020019061027b92919061029d565b509050505050565b604051806040016040528060608152602001606081525090565b8280546102a990610567565b90600052602060002090601f0160209004810192826102cb5760008555610312565b82601f106102e457805160ff1916838001178555610312565b82800160010185558215610312579182015b828111156103115782518255916020019190600101906102f6565b5b50905061031f9190610323565b5090565b5b8082111561033c576000816000905550600101610324565b5090565b600061035361034e846104d8565b6104b3565b90508281526020810184848401111561036b57600080fd5b610376848285610525565b509392505050565b600082601f83011261038f57600080fd5b813561039f848260208601610340565b91505092915050565b600080604083850312156103bb57600080fd5b600083013567ffffffffffffffff8111156103d557600080fd5b6103e18582860161037e565b925050602083013567ffffffffffffffff8111156103fe57600080fd5b61040a8582860161037e565b9150509250929050565b600061041f82610509565b6104298185610514565b9350610439818560208601610534565b61044281610628565b840191505092915050565b6000604083016000830151848203600086015261046a8282610414565b915050602083015184820360208601526104848282610414565b9150508091505092915050565b600060208201905081810360008301526104ab818461044d565b905092915050565b60006104bd6104ce565b90506104c98282610599565b919050565b6000604051905090565b600067ffffffffffffffff8211156104f3576104f26105f9565b5b6104fc82610628565b9050602081019050919050565b600081519050919050565b600082825260208201905092915050565b82818337600083830152505050565b60005b83811015610552578082015181840152602081019050610537565b83811115610561576000848401525b50505050565b6000600282049050600182168061057f57607f821691505b60208210811415610593576105926105ca565b5b50919050565b6105a282610628565b810181811067ffffffffffffffff821117156105c1576105c06105f9565b5b80604052505050565b7f4e487b7100000000000000000000000000000000000000000000000000000000600052602260045260246000fd5b7f4e487b7100000000000000000000000000000000000000000000000000000000600052604160045260246000fd5b6000601f19601f830116905091905056fea26469706673582212200df737533fde9f7ce52afab2b7170f49463b8abda6ab7a1fafac14298495909564736f6c63430008040033",
  "immutableReferences": {},
  "source": "// SPDX-License-Identifier: MIT\r\npragma solidity 0.8.4;\r\n\r\n\r\ncontract Maticulum {\r\n    \r\n   struct User{\r\n       string name;\r\n       string firstname;\r\n   }\r\n   \r\n   mapping(address => User) Users;\r\n   \r\n   function Register(string memory name, string memory firstname) external{\r\n       Users[msg.sender] = User(name, firstname);\r\n   }\r\n   \r\n   function GetUser() external view returns( User memory){\r\n       return Users[msg.sender];\r\n   }\r\n}",
  "sourcePath": "C:/Node/Maticulum-master/contracts/Maticulum.sol",
  "compiler": {
    "name": "solc",
    "version": "0.8.4+commit.c7e474f2.Emscripten.clang"
  },
  "schemaVersion": "3.4.1",
  "updatedAt": "2021-07-04T08:36:11.936Z",
  "networkType": "ethereum",
  "devdoc": {
    "kind": "dev",
    "methods": {},
    "version": 1
  },
  "userdoc": {
    "kind": "user",
    "methods": {},
    "version": 1
  }
}