{
  "contractName": "Maticulum",
  "abi": [
    {
      "inputs": [
        {
          "internalType": "string",
          "name": "name",
          "type": "string"
        },
        {
          "internalType": "string",
          "name": "firstname",
          "type": "string"
        }
      ],
      "name": "Register",
      "outputs": [],
      "stateMutability": "nonpayable",
      "type": "function"
    },
    {
      "inputs": [],
      "name": "GetUser",
      "outputs": [
        {
          "components": [
            {
              "internalType": "string",
              "name": "name",
              "type": "string"
            },
            {
              "internalType": "string",
              "name": "firstname",
              "type": "string"
            }
          ],
          "internalType": "struct Maticulum.User",
          "name": "",
          "type": "tuple"
        }
      ],
      "stateMutability": "view",
      "type": "function",
      "constant": true
    },
    {
      "inputs": [
        {
          "internalType": "string",
          "name": "name",
          "type": "string"
        },
        {
          "internalType": "string",
          "name": "firstname",
          "type": "string"
        }
      ],
      "name": "UpdateUser",
      "outputs": [],
      "stateMutability": "nonpayable",
      "type": "function"
    }
  ],
  "bytecode": "0x608060405234801561001057600080fd5b50610a2b806100206000396000f3fe608060405234801561001057600080fd5b50600436106100415760003560e01c80635ee0f65414610046578063d6192e2914610064578063da6b918e14610080575b600080fd5b61004e61009c565b60405161005b91906107ea565b60405180910390f35b61007e6004803603810190610079919061067b565b6102a2565b005b61009a6004803603810190610095919061067b565b61041a565b005b6100a4610556565b600160003373ffffffffffffffffffffffffffffffffffffffff1673ffffffffffffffffffffffffffffffffffffffff16815260200190815260200160002060009054906101000a900460ff16610130576040517f08c379a0000000000000000000000000000000000000000000000000000000008152600401610127906107ca565b60405180910390fd5b6000803373ffffffffffffffffffffffffffffffffffffffff1673ffffffffffffffffffffffffffffffffffffffff168152602001908152602001600020604051806040016040529081600082018054610189906108d1565b80601f01602080910402602001604051908101604052809291908181526020018280546101b5906108d1565b80156102025780601f106101d757610100808354040283529160200191610202565b820191906000526020600020905b8154815290600101906020018083116101e557829003601f168201915b5050505050815260200160018201805461021b906108d1565b80601f0160208091040260200160405190810160405280929190818152602001828054610247906108d1565b80156102945780601f1061026957610100808354040283529160200191610294565b820191906000526020600020905b81548152906001019060200180831161027757829003601f168201915b505050505081525050905090565b600160003373ffffffffffffffffffffffffffffffffffffffff1673ffffffffffffffffffffffffffffffffffffffff16815260200190815260200160002060009054906101000a900460ff161561032f576040517f08c379a0000000000000000000000000000000000000000000000000000000008152600401610326906107aa565b60405180910390fd5b60018060003373ffffffffffffffffffffffffffffffffffffffff1673ffffffffffffffffffffffffffffffffffffffff16815260200190815260200160002060006101000a81548160ff0219169083151502179055506040518060400160405280838152602001828152506000803373ffffffffffffffffffffffffffffffffffffffff1673ffffffffffffffffffffffffffffffffffffffff16815260200190815260200160002060008201518160000190805190602001906103f5929190610570565b506020820151816001019080519060200190610412929190610570565b509050505050565b600160003373ffffffffffffffffffffffffffffffffffffffff1673ffffffffffffffffffffffffffffffffffffffff16815260200190815260200160002060009054906101000a900460ff166104a6576040517f08c379a000000000000000000000000000000000000000000000000000000000815260040161049d906107ca565b60405180910390fd5b816000803373ffffffffffffffffffffffffffffffffffffffff1673ffffffffffffffffffffffffffffffffffffffff16815260200190815260200160002060000190805190602001906104fb929190610570565b50806000803373ffffffffffffffffffffffffffffffffffffffff1673ffffffffffffffffffffffffffffffffffffffff1681526020019081526020016000206001019080519060200190610551929190610570565b505050565b604051806040016040528060608152602001606081525090565b82805461057c906108d1565b90600052602060002090601f01602090048101928261059e57600085556105e5565b82601f106105b757805160ff19168380011785556105e5565b828001600101855582156105e5579182015b828111156105e45782518255916020019190600101906105c9565b5b5090506105f291906105f6565b5090565b5b8082111561060f5760008160009055506001016105f7565b5090565b600061062661062184610831565b61080c565b90508281526020810184848401111561063e57600080fd5b61064984828561088f565b509392505050565b600082601f83011261066257600080fd5b8135610672848260208601610613565b91505092915050565b6000806040838503121561068e57600080fd5b600083013567ffffffffffffffff8111156106a857600080fd5b6106b485828601610651565b925050602083013567ffffffffffffffff8111156106d157600080fd5b6106dd85828601610651565b9150509250929050565b60006106f282610862565b6106fc818561086d565b935061070c81856020860161089e565b61071581610992565b840191505092915050565b600061072d60178361087e565b9150610738826109a3565b602082019050919050565b600061075060138361087e565b915061075b826109cc565b602082019050919050565b6000604083016000830151848203600086015261078382826106e7565b9150506020830151848203602086015261079d82826106e7565b9150508091505092915050565b600060208201905081810360008301526107c381610720565b9050919050565b600060208201905081810360008301526107e381610743565b9050919050565b600060208201905081810360008301526108048184610766565b905092915050565b6000610816610827565b90506108228282610903565b919050565b6000604051905090565b600067ffffffffffffffff82111561084c5761084b610963565b5b61085582610992565b9050602081019050919050565b600081519050919050565b600082825260208201905092915050565b600082825260208201905092915050565b82818337600083830152505050565b60005b838110156108bc5780820151818401526020810190506108a1565b838111156108cb576000848401525b50505050565b600060028204905060018216806108e957607f821691505b602082108114156108fd576108fc610934565b5b50919050565b61090c82610992565b810181811067ffffffffffffffff8211171561092b5761092a610963565b5b80604052505050565b7f4e487b7100000000000000000000000000000000000000000000000000000000600052602260045260246000fd5b7f4e487b7100000000000000000000000000000000000000000000000000000000600052604160045260246000fd5b6000601f19601f8301169050919050565b7f7573657220616c72656164792072656769737465726564000000000000000000600082015250565b7f75736572206e6f7420726567697374657265640000000000000000000000000060008201525056fea2646970667358221220f99128f6d8e29e165b079c6acf7100678d42a6963a8a23de3578282432ad660f64736f6c63430008040033",
  "immutableReferences": {},
  "source": "// SPDX-License-Identifier: MIT\r\npragma solidity 0.8.4;\r\n\r\n\r\ncontract Maticulum {\r\n    \r\n   struct User{\r\n       string name;\r\n       string firstname;\r\n   }\r\n   \r\n   mapping(address => User) Users;\r\n   mapping(address => bool) UserRegisterd;\r\n   \r\n   function Register(string memory name, string memory firstname) external{\r\n       require(!UserRegisterd[msg.sender], \"user already registered\");\r\n       UserRegisterd[msg.sender] = true;\r\n       Users[msg.sender] = User(name, firstname);\r\n   }\r\n   \r\n   function GetUser() external view returns( User memory){\r\n       require(UserRegisterd[msg.sender], \"user not registered\");\r\n       return Users[msg.sender];\r\n   }\r\n   \r\n   function UpdateUser(string memory name, string memory firstname) external{\r\n       require(UserRegisterd[msg.sender], \"user not registered\");\r\n       Users[msg.sender].name = name;\r\n       Users[msg.sender].firstname = firstname;\r\n   }\r\n}",
  "sourcePath": "C:/Node/Maticulum-master/contracts/Maticulum.sol",
  "compiler": {
    "name": "solc",
    "version": "0.8.4+commit.c7e474f2.Emscripten.clang"
  },
  "schemaVersion": "3.4.1",
  "updatedAt": "2021-07-04T11:51:07.579Z",
  "networkType": "ethereum",
  "devdoc": {
    "kind": "dev",
    "methods": {},
    "version": 1
  },
  "userdoc": {
    "kind": "user",
    "methods": {},
    "version": 1
  }
}