{
  "contractName": "Maticulum",
  "abi": [
    {
      "anonymous": false,
      "inputs": [
        {
          "indexed": false,
          "internalType": "uint256",
          "name": "id",
          "type": "uint256"
        },
        {
          "indexed": false,
          "internalType": "string",
          "name": "name",
          "type": "string"
        }
      ],
      "name": "SchoolAdded",
      "type": "event"
    },
    {
      "anonymous": false,
      "inputs": [
        {
          "indexed": false,
          "internalType": "uint256",
          "name": "id",
          "type": "uint256"
        },
        {
          "indexed": false,
          "internalType": "string",
          "name": "name",
          "type": "string"
        }
      ],
      "name": "SchoolUpdated",
      "type": "event"
    },
    {
      "anonymous": false,
      "inputs": [
        {
          "indexed": false,
          "internalType": "uint256",
          "name": "id",
          "type": "uint256"
        },
        {
          "indexed": false,
          "internalType": "string",
          "name": "name",
          "type": "string"
        },
        {
          "indexed": false,
          "internalType": "address",
          "name": "validator",
          "type": "address"
        },
        {
          "indexed": false,
          "internalType": "uint256",
          "name": "count",
          "type": "uint256"
        }
      ],
      "name": "SchoolValidated",
      "type": "event"
    },
    {
      "inputs": [
        {
          "internalType": "uint256",
          "name": "",
          "type": "uint256"
        }
      ],
      "name": "schools",
      "outputs": [
        {
          "internalType": "string",
          "name": "name",
          "type": "string"
        }
      ],
      "stateMutability": "view",
      "type": "function",
      "constant": true
    },
    {
      "inputs": [
        {
          "internalType": "string",
          "name": "name",
          "type": "string"
        },
        {
          "internalType": "string",
          "name": "firstname",
          "type": "string"
        }
      ],
      "name": "Register",
      "outputs": [],
      "stateMutability": "nonpayable",
      "type": "function"
    },
    {
      "inputs": [],
      "name": "GetUser",
      "outputs": [
        {
          "components": [
            {
              "internalType": "string",
              "name": "name",
              "type": "string"
            },
            {
              "internalType": "string",
              "name": "firstname",
              "type": "string"
            }
          ],
          "internalType": "struct Maticulum.User",
          "name": "",
          "type": "tuple"
        }
      ],
      "stateMutability": "view",
      "type": "function",
      "constant": true
    },
    {
      "inputs": [
        {
          "internalType": "string",
          "name": "name",
          "type": "string"
        },
        {
          "internalType": "string",
          "name": "firstname",
          "type": "string"
        }
      ],
      "name": "UpdateUser",
      "outputs": [],
      "stateMutability": "nonpayable",
      "type": "function"
    },
    {
      "inputs": [],
      "name": "isRegistered",
      "outputs": [
        {
          "internalType": "bool",
          "name": "",
          "type": "bool"
        }
      ],
      "stateMutability": "view",
      "type": "function",
      "constant": true
    },
    {
      "inputs": [
        {
          "internalType": "string",
          "name": "_name",
          "type": "string"
        }
      ],
      "name": "addSchool",
      "outputs": [
        {
          "internalType": "uint256",
          "name": "",
          "type": "uint256"
        }
      ],
      "stateMutability": "nonpayable",
      "type": "function"
    },
    {
      "inputs": [
        {
          "internalType": "uint256",
          "name": "_id",
          "type": "uint256"
        },
        {
          "internalType": "string",
          "name": "_name",
          "type": "string"
        }
      ],
      "name": "updateSchool",
      "outputs": [],
      "stateMutability": "nonpayable",
      "type": "function"
    },
    {
      "inputs": [
        {
          "internalType": "uint256",
          "name": "_id",
          "type": "uint256"
        }
      ],
      "name": "validateSchool",
      "outputs": [],
      "stateMutability": "nonpayable",
      "type": "function"
    },
    {
      "inputs": [],
      "name": "getNbSchools",
      "outputs": [
        {
          "internalType": "uint256",
          "name": "length",
          "type": "uint256"
        }
      ],
      "stateMutability": "view",
      "type": "function",
      "constant": true
    },
    {
      "inputs": [
        {
          "internalType": "uint256",
          "name": "_id",
          "type": "uint256"
        }
      ],
      "name": "getSchool",
      "outputs": [
        {
          "internalType": "string",
          "name": "name",
          "type": "string"
        },
        {
          "internalType": "address[]",
          "name": "validators",
          "type": "address[]"
        }
      ],
      "stateMutability": "view",
      "type": "function",
      "constant": true
    },
    {
      "inputs": [],
      "name": "getSchoolsWaitingValidation",
      "outputs": [
        {
          "components": [
            {
              "internalType": "string",
              "name": "name",
              "type": "string"
            },
            {
              "internalType": "address[]",
              "name": "validators",
              "type": "address[]"
            }
          ],
          "internalType": "struct Maticulum.School[]",
          "name": "needValidation",
          "type": "tuple[]"
        }
      ],
      "stateMutability": "view",
      "type": "function",
      "constant": true
    }
  ],
  "bytecode": "0x608060405234801561001057600080fd5b50611e47806100206000396000f3fe608060405234801561001057600080fd5b50600436106100a95760003560e01c80635ee0f654116100715780635ee0f65414610152578063719c0d0414610170578063a01b76bf146101a0578063d38e7ea9146101be578063d6192e29146101ef578063da6b918e1461020b576100a9565b8063213f1416146100ae57806322366844146100cc5780632ab47acb146100ea578063396d73fd1461011a578063521e966c14610136575b600080fd5b6100b6610227565b6040516100c391906118ad565b60405180910390f35b6100d461044b565b6040516100e191906118cf565b60405180910390f35b61010460048036038101906100ff9190611407565b61049f565b60405161011191906119c5565b60405180910390f35b610134600480360381019061012f91906114b4565b610687565b005b610150600480360381019061014b91906114dd565b6109ef565b005b61015a610b30565b60405161016791906119a3565b60405180910390f35b61018a600480360381019061018591906114b4565b610d36565b60405161019791906118ea565b60405180910390f35b6101a8610dec565b6040516101b591906119c5565b60405180910390f35b6101d860048036038101906101d391906114b4565b610df9565b6040516101e692919061190c565b60405180910390f35b61020960048036038101906102049190611448565b610f6e565b005b61022560048036038101906102209190611448565b6110e6565b005b606060005b60038054905081101561044757600260038281548110610275577f4e487b7100000000000000000000000000000000000000000000000000000000600052603260045260246000fd5b9060005260206000200154815481106102b7577f4e487b7100000000000000000000000000000000000000000000000000000000600052603260045260246000fd5b90600052602060002090600202016040518060400160405290816000820180546102e090611c35565b80601f016020809104026020016040519081016040528092919081815260200182805461030c90611c35565b80156103595780601f1061032e57610100808354040283529160200191610359565b820191906000526020600020905b81548152906001019060200180831161033c57829003601f168201915b50505050508152602001600182018054806020026020016040519081016040528092919081815260200182805480156103e757602002820191906000526020600020905b8160009054906101000a900473ffffffffffffffffffffffffffffffffffffffff1673ffffffffffffffffffffffffffffffffffffffff168152602001906001019080831161039d575b505050505081525050828281518110610429577f4e487b7100000000000000000000000000000000000000000000000000000000600052603260045260246000fd5b6020026020010181905250808061043f90611c98565b91505061022c565b5090565b6000600160003373ffffffffffffffffffffffffffffffffffffffff1673ffffffffffffffffffffffffffffffffffffffff16815260200190815260200160002060009054906101000a900460ff16905090565b600080600167ffffffffffffffff8111156104e3577f4e487b7100000000000000000000000000000000000000000000000000000000600052604160045260246000fd5b6040519080825280602002602001820160405280156105115781602001602082028036833780820191505090505b509050338160008151811061054f577f4e487b7100000000000000000000000000000000000000000000000000000000600052603260045260246000fd5b602002602001019073ffffffffffffffffffffffffffffffffffffffff16908173ffffffffffffffffffffffffffffffffffffffff16815250506002604051806040016040528085815260200183815250908060018154018082558091505060019003906000526020600020906002020160009091909190915060008201518160000190805190602001906105e5929190611222565b5060208201518160010190805190602001906106029291906112a8565b505050600060016002805490506106199190611b77565b905060038190806001815401808255809150506001900390600052602060002001600090919091909150557f01d662eb094eae751a9e8c78515d3462dea52d84eaa6616e2ddeebe481e56e9b81856040516106759291906119e0565b60405180910390a18092505050919050565b6000600282815481106106c3577f4e487b7100000000000000000000000000000000000000000000000000000000600052603260045260246000fd5b9060005260206000209060020201905060005b81600101805490508110156107cd573373ffffffffffffffffffffffffffffffffffffffff16826001018281548110610738577f4e487b7100000000000000000000000000000000000000000000000000000000600052603260045260246000fd5b9060005260206000200160009054906101000a900473ffffffffffffffffffffffffffffffffffffffff1673ffffffffffffffffffffffffffffffffffffffff1614156107ba576040517f08c379a00000000000000000000000000000000000000000000000000000000081526004016107b190611963565b60405180910390fd5b80806107c590611c98565b9150506106d6565b5080600101339080600181540180825580915050600190039060005260206000200160009091909190916101000a81548173ffffffffffffffffffffffffffffffffffffffff021916908373ffffffffffffffffffffffffffffffffffffffff16021790555060038160010180549050106109a45760005b6003805490508110156109a257826003828154811061088d577f4e487b7100000000000000000000000000000000000000000000000000000000600052603260045260246000fd5b9060005260206000200154141561098f57600360016003805490506108b29190611b77565b815481106108e9577f4e487b7100000000000000000000000000000000000000000000000000000000600052603260045260246000fd5b90600052602060002001546003828154811061092e577f4e487b7100000000000000000000000000000000000000000000000000000000600052603260045260246000fd5b90600052602060002001819055506003805480610974577f4e487b7100000000000000000000000000000000000000000000000000000000600052603160045260246000fd5b600190038181906000526020600020016000905590556109a2565b808061099a90611c98565b915050610845565b505b7f612af120b0488db1855887593be0f7cb0a4299306f7b6fa63cbaaef364a73fb582826000013384600101805490506040516109e39493929190611a10565b60405180910390a15050565b600060028381548110610a2b577f4e487b7100000000000000000000000000000000000000000000000000000000600052603260045260246000fd5b9060005260206000209060020201905081816000019080519060200190610a53929190611222565b50806001016000610a649190611332565b80600101339080600181540180825580915050600190039060005260206000200160009091909190916101000a81548173ffffffffffffffffffffffffffffffffffffffff021916908373ffffffffffffffffffffffffffffffffffffffff16021790555060038390806001815401808255809150506001900390600052602060002001600090919091909150557ffb771c013f868d6e1489c30b4f2e6ce2ae457350176853d17c639227808b0a198383604051610b239291906119e0565b60405180910390a1505050565b610b38611353565b600160003373ffffffffffffffffffffffffffffffffffffffff1673ffffffffffffffffffffffffffffffffffffffff16815260200190815260200160002060009054906101000a900460ff16610bc4576040517f08c379a0000000000000000000000000000000000000000000000000000000008152600401610bbb90611983565b60405180910390fd5b6000803373ffffffffffffffffffffffffffffffffffffffff1673ffffffffffffffffffffffffffffffffffffffff168152602001908152602001600020604051806040016040529081600082018054610c1d90611c35565b80601f0160208091040260200160405190810160405280929190818152602001828054610c4990611c35565b8015610c965780601f10610c6b57610100808354040283529160200191610c96565b820191906000526020600020905b815481529060010190602001808311610c7957829003601f168201915b50505050508152602001600182018054610caf90611c35565b80601f0160208091040260200160405190810160405280929190818152602001828054610cdb90611c35565b8015610d285780601f10610cfd57610100808354040283529160200191610d28565b820191906000526020600020905b815481529060010190602001808311610d0b57829003601f168201915b505050505081525050905090565b60028181548110610d4657600080fd5b9060005260206000209060020201600091509050806000018054610d6990611c35565b80601f0160208091040260200160405190810160405280929190818152602001828054610d9590611c35565b8015610de25780601f10610db757610100808354040283529160200191610de2565b820191906000526020600020905b815481529060010190602001808311610dc557829003601f168201915b5050505050905081565b6000600280549050905090565b606080600060028481548110610e38577f4e487b7100000000000000000000000000000000000000000000000000000000600052603260045260246000fd5b906000526020600020906002020190508060000181600101818054610e5c90611c35565b80601f0160208091040260200160405190810160405280929190818152602001828054610e8890611c35565b8015610ed55780601f10610eaa57610100808354040283529160200191610ed5565b820191906000526020600020905b815481529060010190602001808311610eb857829003601f168201915b5050505050915080805480602002602001604051908101604052809291908181526020018280548015610f5d57602002820191906000526020600020905b8160009054906101000a900473ffffffffffffffffffffffffffffffffffffffff1673ffffffffffffffffffffffffffffffffffffffff1681526020019060010190808311610f13575b505050505090509250925050915091565b600160003373ffffffffffffffffffffffffffffffffffffffff1673ffffffffffffffffffffffffffffffffffffffff16815260200190815260200160002060009054906101000a900460ff1615610ffb576040517f08c379a0000000000000000000000000000000000000000000000000000000008152600401610ff290611943565b60405180910390fd5b60018060003373ffffffffffffffffffffffffffffffffffffffff1673ffffffffffffffffffffffffffffffffffffffff16815260200190815260200160002060006101000a81548160ff0219169083151502179055506040518060400160405280838152602001828152506000803373ffffffffffffffffffffffffffffffffffffffff1673ffffffffffffffffffffffffffffffffffffffff16815260200190815260200160002060008201518160000190805190602001906110c1929190611222565b5060208201518160010190805190602001906110de929190611222565b509050505050565b600160003373ffffffffffffffffffffffffffffffffffffffff1673ffffffffffffffffffffffffffffffffffffffff16815260200190815260200160002060009054906101000a900460ff16611172576040517f08c379a000000000000000000000000000000000000000000000000000000000815260040161116990611983565b60405180910390fd5b816000803373ffffffffffffffffffffffffffffffffffffffff1673ffffffffffffffffffffffffffffffffffffffff16815260200190815260200160002060000190805190602001906111c7929190611222565b50806000803373ffffffffffffffffffffffffffffffffffffffff1673ffffffffffffffffffffffffffffffffffffffff168152602001908152602001600020600101908051906020019061121d929190611222565b505050565b82805461122e90611c35565b90600052602060002090601f0160209004810192826112505760008555611297565b82601f1061126957805160ff1916838001178555611297565b82800160010185558215611297579182015b8281111561129657825182559160200191906001019061127b565b5b5090506112a4919061136d565b5090565b828054828255906000526020600020908101928215611321579160200282015b828111156113205782518260006101000a81548173ffffffffffffffffffffffffffffffffffffffff021916908373ffffffffffffffffffffffffffffffffffffffff160217905550916020019190600101906112c8565b5b50905061132e919061136d565b5090565b5080546000825590600052602060002090810190611350919061136d565b50565b604051806040016040528060608152602001606081525090565b5b8082111561138657600081600090555060010161136e565b5090565b600061139d61139884611a81565b611a5c565b9050828152602081018484840111156113b557600080fd5b6113c0848285611bf3565b509392505050565b600082601f8301126113d957600080fd5b81356113e984826020860161138a565b91505092915050565b60008135905061140181611dfa565b92915050565b60006020828403121561141957600080fd5b600082013567ffffffffffffffff81111561143357600080fd5b61143f848285016113c8565b91505092915050565b6000806040838503121561145b57600080fd5b600083013567ffffffffffffffff81111561147557600080fd5b611481858286016113c8565b925050602083013567ffffffffffffffff81111561149e57600080fd5b6114aa858286016113c8565b9150509250929050565b6000602082840312156114c657600080fd5b60006114d4848285016113f2565b91505092915050565b600080604083850312156114f057600080fd5b60006114fe858286016113f2565b925050602083013567ffffffffffffffff81111561151b57600080fd5b611527858286016113c8565b9150509250929050565b600061153d838361155d565b60208301905092915050565b60006115558383611816565b905092915050565b61156681611bab565b82525050565b61157581611bab565b82525050565b600061158682611ae7565b6115908185611b22565b935061159b83611ab2565b8060005b838110156115cc5781516115b38882611531565b97506115be83611b08565b92505060018101905061159f565b5085935050505092915050565b60006115e482611ae7565b6115ee8185611b33565b93506115f983611ab2565b8060005b8381101561162a5781516116118882611531565b975061161c83611b08565b9250506001810190506115fd565b5085935050505092915050565b600061164282611af2565b61164c8185611b44565b93508360208202850161165e85611ac2565b8060005b8581101561169a578484038952815161167b8582611549565b945061168683611b15565b925060208a01995050600181019050611662565b50829750879550505050505092915050565b6116b581611bbd565b82525050565b60006116c682611afd565b6116d08185611b55565b93506116e0818560208601611c02565b6116e981611d6e565b840191505092915050565b60006116ff82611afd565b6117098185611b66565b9350611719818560208601611c02565b61172281611d6e565b840191505092915050565b6000815461173a81611c35565b6117448186611b66565b9450600182166000811461175f5760018114611771576117a4565b60ff19831686526020860193506117a4565b61177a85611ad2565b60005b8381101561179c5781548189015260018201915060208101905061177d565b808801955050505b50505092915050565b60006117ba601783611b66565b91506117c582611d7f565b602082019050919050565b60006117dd601f83611b66565b91506117e882611da8565b602082019050919050565b6000611800601383611b66565b915061180b82611dd1565b602082019050919050565b6000604083016000830151848203600086015261183382826116bb565b9150506020830151848203602086015261184d828261157b565b9150508091505092915050565b6000604083016000830151848203600086015261187782826116bb565b9150506020830151848203602086015261189182826116bb565b9150508091505092915050565b6118a781611be9565b82525050565b600060208201905081810360008301526118c78184611637565b905092915050565b60006020820190506118e460008301846116ac565b92915050565b6000602082019050818103600083015261190481846116f4565b905092915050565b6000604082019050818103600083015261192681856116f4565b9050818103602083015261193a81846115d9565b90509392505050565b6000602082019050818103600083015261195c816117ad565b9050919050565b6000602082019050818103600083015261197c816117d0565b9050919050565b6000602082019050818103600083015261199c816117f3565b9050919050565b600060208201905081810360008301526119bd818461185a565b905092915050565b60006020820190506119da600083018461189e565b92915050565b60006040820190506119f5600083018561189e565b8181036020830152611a0781846116f4565b90509392505050565b6000608082019050611a25600083018761189e565b8181036020830152611a37818661172d565b9050611a46604083018561156c565b611a53606083018461189e565b95945050505050565b6000611a66611a77565b9050611a728282611c67565b919050565b6000604051905090565b600067ffffffffffffffff821115611a9c57611a9b611d3f565b5b611aa582611d6e565b9050602081019050919050565b6000819050602082019050919050565b6000819050602082019050919050565b60008190508160005260206000209050919050565b600081519050919050565b600081519050919050565b600081519050919050565b6000602082019050919050565b6000602082019050919050565b600082825260208201905092915050565b600082825260208201905092915050565b600082825260208201905092915050565b600082825260208201905092915050565b600082825260208201905092915050565b6000611b8282611be9565b9150611b8d83611be9565b925082821015611ba057611b9f611ce1565b5b828203905092915050565b6000611bb682611bc9565b9050919050565b60008115159050919050565b600073ffffffffffffffffffffffffffffffffffffffff82169050919050565b6000819050919050565b82818337600083830152505050565b60005b83811015611c20578082015181840152602081019050611c05565b83811115611c2f576000848401525b50505050565b60006002820490506001821680611c4d57607f821691505b60208210811415611c6157611c60611d10565b5b50919050565b611c7082611d6e565b810181811067ffffffffffffffff82111715611c8f57611c8e611d3f565b5b80604052505050565b6000611ca382611be9565b91507fffffffffffffffffffffffffffffffffffffffffffffffffffffffffffffffff821415611cd657611cd5611ce1565b5b600182019050919050565b7f4e487b7100000000000000000000000000000000000000000000000000000000600052601160045260246000fd5b7f4e487b7100000000000000000000000000000000000000000000000000000000600052602260045260246000fd5b7f4e487b7100000000000000000000000000000000000000000000000000000000600052604160045260246000fd5b6000601f19601f8301169050919050565b7f7573657220616c72656164792072656769737465726564000000000000000000600082015250565b7f416c72656164792076616c696461746564206279207468697320757365722e00600082015250565b7f75736572206e6f74207265676973746572656400000000000000000000000000600082015250565b611e0381611be9565b8114611e0e57600080fd5b5056fea26469706673582212201bf2590a5b99e357fb39530ebae4a7cd4c44ec2c3ca64cba23c7baa2fd094df664736f6c63430008040033",
  "immutableReferences": {},
  "source": "// SPDX-License-Identifier: MIT\r\npragma solidity 0.8.4;\r\n\r\n\r\ncontract Maticulum {\r\n    \r\n   struct User{\r\n       string name;\r\n       string firstname;\r\n   }\r\n\r\n    struct School {\r\n        string name;\r\n        address[] validators;\r\n    }\r\n   \r\n   mapping(address => User) Users;\r\n   mapping(address => bool) UserRegistered;\r\n\r\n    School[] public schools;\r\n    uint256[] schoolsToValidate;\r\n\r\n\r\n    event SchoolAdded(uint256 id, string name);\r\n    event SchoolUpdated(uint256 id, string name);\r\n    event SchoolValidated(uint256 id, string name, address validator, uint256 count);\r\n\r\n   \r\n   function Register(string memory name, string memory firstname) external{\r\n       require(!UserRegistered[msg.sender], \"user already registered\");\r\n       UserRegistered[msg.sender] = true;\r\n       Users[msg.sender] = User(name, firstname);\r\n   }\r\n   \r\n   function GetUser() external view returns( User memory){\r\n       require(UserRegistered[msg.sender], \"user not registered\");\r\n       return Users[msg.sender];\r\n   }\r\n   \r\n   function UpdateUser(string memory name, string memory firstname) external{\r\n       require(UserRegistered[msg.sender], \"user not registered\");\r\n       Users[msg.sender].name = name;\r\n       Users[msg.sender].firstname = firstname;\r\n   }\r\n   \r\n   function isRegistered() external view returns (bool){\r\n       return UserRegistered[msg.sender];\r\n   }\r\n\r\n\r\n    function addSchool(string memory _name) external /* only(Admin) */ returns (uint256) {\r\n        address[] memory validators = new address[](1);\r\n        validators[0] = msg.sender;\r\n        schools.push(School(_name, validators));\r\n\r\n        uint256 id = schools.length - 1;\r\n        schoolsToValidate.push(id);\r\n        \r\n        emit SchoolAdded(id, _name);\r\n        return id;\r\n    }\r\n\r\n\r\n    function updateSchool(uint256 _id, string memory _name) external /* only(Admin) */ {\r\n        School storage school = schools[_id];\r\n        school.name = _name;\r\n        delete school.validators;\r\n        school.validators.push(msg.sender);\r\n\r\n        schoolsToValidate.push(_id);\r\n\r\n        emit SchoolUpdated(_id, _name);\r\n    }\r\n\r\n\r\n    function validateSchool(uint256 _id) external /* only(Admin) */ {\r\n        School storage school = schools[_id];\r\n\r\n        for (uint256 i = 0; i < school.validators.length; i++) {\r\n            if (school.validators[i] == msg.sender) {\r\n                revert(\"Already validated by this user.\");\r\n            }\r\n        }\r\n        \r\n        school.validators.push(msg.sender);\r\n        if (school.validators.length >= 3) {\r\n            for (uint256 i = 0; i < schoolsToValidate.length; i++) {\r\n                if (schoolsToValidate[i] == _id) {\r\n                    schoolsToValidate[i] = schoolsToValidate[schoolsToValidate.length - 1];\r\n                    schoolsToValidate.pop();\r\n                    break;\r\n                }\r\n            }\r\n        }\r\n        \r\n        emit SchoolValidated(_id, school.name, msg.sender, school.validators.length);\r\n    }\r\n\r\n\r\n    function getNbSchools() external view returns (uint256 length) {\r\n        return schools.length;\r\n    }\r\n\r\n\r\n    function getSchool(uint256 _id) external view returns (string memory name, address[] memory validators) {\r\n        School storage school = schools[_id];\r\n\r\n        return (school.name, school.validators);\r\n    }\r\n\r\n\r\n    function getSchoolsWaitingValidation() external view /* only(Admin) */ returns (School[] memory needValidation) {\r\n        for (uint256 i = 0; i < schoolsToValidate.length; i++) {\r\n            needValidation[i] = schools[schoolsToValidate[i]];\r\n        }\r\n    }\r\n\r\n}\r\n",
  "sourcePath": "C:/ws/alyra/maticulum/contracts/Maticulum.sol",
  "compiler": {
    "name": "solc",
    "version": "0.8.4+commit.c7e474f2.Emscripten.clang"
  },
  "schemaVersion": "3.4.1",
  "updatedAt": "2021-07-05T06:01:45.244Z",
  "networkType": "ethereum",
  "devdoc": {
    "kind": "dev",
    "methods": {},
    "version": 1
  },
  "userdoc": {
    "kind": "user",
    "methods": {},
    "version": 1
  }
}