{
  "contractName": "Maticulum",
  "abi": [
    {
      "anonymous": false,
      "inputs": [
        {
          "indexed": true,
          "internalType": "address",
          "name": "oldOwner",
          "type": "address"
        },
        {
          "indexed": true,
          "internalType": "address",
          "name": "newOwner",
          "type": "address"
        }
      ],
      "name": "OwnerSet",
      "type": "event"
    },
    {
      "anonymous": false,
      "inputs": [
        {
          "indexed": false,
          "internalType": "uint256",
          "name": "id",
          "type": "uint256"
        },
        {
          "indexed": false,
          "internalType": "string",
          "name": "name",
          "type": "string"
        }
      ],
      "name": "SchoolAdded",
      "type": "event"
    },
    {
      "anonymous": false,
      "inputs": [
        {
          "indexed": false,
          "internalType": "uint256",
          "name": "id",
          "type": "uint256"
        },
        {
          "indexed": false,
          "internalType": "string",
          "name": "name",
          "type": "string"
        }
      ],
      "name": "SchoolUpdated",
      "type": "event"
    },
    {
      "anonymous": false,
      "inputs": [
        {
          "indexed": false,
          "internalType": "uint256",
          "name": "id",
          "type": "uint256"
        },
        {
          "indexed": false,
          "internalType": "string",
          "name": "name",
          "type": "string"
        },
        {
          "indexed": false,
          "internalType": "address",
          "name": "validator",
          "type": "address"
        },
        {
          "indexed": false,
          "internalType": "uint256",
          "name": "count",
          "type": "uint256"
        }
      ],
      "name": "SchoolValidated",
      "type": "event"
    },
    {
      "anonymous": false,
      "inputs": [
        {
          "indexed": false,
          "internalType": "address",
          "name": "userAdress",
          "type": "address"
        }
      ],
      "name": "UserCreated",
      "type": "event"
    },
    {
      "inputs": [
        {
          "internalType": "address",
          "name": "newOwner",
          "type": "address"
        }
      ],
      "name": "changeOwner",
      "outputs": [],
      "stateMutability": "nonpayable",
      "type": "function"
    },
    {
      "inputs": [],
      "name": "getOwner",
      "outputs": [
        {
          "internalType": "address",
          "name": "",
          "type": "address"
        }
      ],
      "stateMutability": "view",
      "type": "function",
      "constant": true
    },
    {
      "inputs": [
        {
          "internalType": "uint256",
          "name": "",
          "type": "uint256"
        }
      ],
      "name": "schools",
      "outputs": [
        {
          "internalType": "string",
          "name": "name",
          "type": "string"
        }
      ],
      "stateMutability": "view",
      "type": "function",
      "constant": true
    },
    {
      "inputs": [
        {
          "internalType": "address",
          "name": "userAdress",
          "type": "address"
        }
      ],
      "name": "setUserAdmin",
      "outputs": [],
      "stateMutability": "nonpayable",
      "type": "function"
    },
    {
      "inputs": [
        {
          "internalType": "string",
          "name": "name",
          "type": "string"
        },
        {
          "internalType": "string",
          "name": "firstname",
          "type": "string"
        },
        {
          "internalType": "string",
          "name": "birthCountry",
          "type": "string"
        },
        {
          "internalType": "string",
          "name": "birthDate",
          "type": "string"
        },
        {
          "internalType": "string",
          "name": "mail",
          "type": "string"
        },
        {
          "internalType": "string",
          "name": "telfixe",
          "type": "string"
        },
        {
          "internalType": "string",
          "name": "mobile",
          "type": "string"
        }
      ],
      "name": "userRegister",
      "outputs": [],
      "stateMutability": "nonpayable",
      "type": "function"
    },
    {
      "inputs": [
        {
          "internalType": "string",
          "name": "name",
          "type": "string"
        },
        {
          "internalType": "string",
          "name": "firstname",
          "type": "string"
        },
        {
          "internalType": "string",
          "name": "birthCountry",
          "type": "string"
        },
        {
          "internalType": "string",
          "name": "birthDate",
          "type": "string"
        },
        {
          "internalType": "string",
          "name": "mail",
          "type": "string"
        },
        {
          "internalType": "string",
          "name": "telfixe",
          "type": "string"
        },
        {
          "internalType": "string",
          "name": "mobile",
          "type": "string"
        }
      ],
      "name": "userUpdate",
      "outputs": [],
      "stateMutability": "nonpayable",
      "type": "function"
    },
    {
      "inputs": [],
      "name": "getUser",
      "outputs": [
        {
          "components": [
            {
              "internalType": "string",
              "name": "name",
              "type": "string"
            },
            {
              "internalType": "string",
              "name": "firstname",
              "type": "string"
            },
            {
              "internalType": "string",
              "name": "birthCountry",
              "type": "string"
            },
            {
              "internalType": "string",
              "name": "birthDate",
              "type": "string"
            },
            {
              "internalType": "string",
              "name": "matricule",
              "type": "string"
            },
            {
              "internalType": "string",
              "name": "mail",
              "type": "string"
            },
            {
              "internalType": "string",
              "name": "mobile",
              "type": "string"
            },
            {
              "internalType": "string",
              "name": "telfixe",
              "type": "string"
            },
            {
              "internalType": "bool",
              "name": "isAdmin",
              "type": "bool"
            }
          ],
          "internalType": "struct Maticulum.user",
          "name": "",
          "type": "tuple"
        }
      ],
      "stateMutability": "view",
      "type": "function",
      "constant": true
    },
    {
      "inputs": [],
      "name": "isRegistered",
      "outputs": [
        {
          "internalType": "bool",
          "name": "",
          "type": "bool"
        }
      ],
      "stateMutability": "view",
      "type": "function",
      "constant": true
    },
    {
      "inputs": [
        {
          "internalType": "string",
          "name": "_name",
          "type": "string"
        }
      ],
      "name": "addSchool",
      "outputs": [
        {
          "internalType": "uint256",
          "name": "",
          "type": "uint256"
        }
      ],
      "stateMutability": "nonpayable",
      "type": "function"
    },
    {
      "inputs": [
        {
          "internalType": "uint256",
          "name": "_id",
          "type": "uint256"
        },
        {
          "internalType": "string",
          "name": "_name",
          "type": "string"
        }
      ],
      "name": "updateSchool",
      "outputs": [],
      "stateMutability": "nonpayable",
      "type": "function"
    },
    {
      "inputs": [
        {
          "internalType": "uint256",
          "name": "_id",
          "type": "uint256"
        }
      ],
      "name": "validateSchool",
      "outputs": [],
      "stateMutability": "nonpayable",
      "type": "function"
    },
    {
      "inputs": [],
      "name": "getNbSchools",
      "outputs": [
        {
          "internalType": "uint256",
          "name": "length",
          "type": "uint256"
        }
      ],
      "stateMutability": "view",
      "type": "function",
      "constant": true
    },
    {
      "inputs": [
        {
          "internalType": "uint256",
          "name": "_id",
          "type": "uint256"
        }
      ],
      "name": "getSchool",
      "outputs": [
        {
          "internalType": "string",
          "name": "name",
          "type": "string"
        },
        {
          "internalType": "address[]",
          "name": "validators",
          "type": "address[]"
        }
      ],
      "stateMutability": "view",
      "type": "function",
      "constant": true
    },
    {
      "inputs": [],
      "name": "getSchoolsWaitingValidation",
      "outputs": [
        {
          "components": [
            {
              "internalType": "string",
              "name": "name",
              "type": "string"
            },
            {
              "internalType": "address[]",
              "name": "validators",
              "type": "address[]"
            }
          ],
          "internalType": "struct Maticulum.School[]",
          "name": "needValidation",
          "type": "tuple[]"
        }
      ],
      "stateMutability": "view",
      "type": "function",
      "constant": true
    }
  ],
  "bytecode": "0x608060405234801561001057600080fd5b50336000806101000a81548173ffffffffffffffffffffffffffffffffffffffff021916908373ffffffffffffffffffffffffffffffffffffffff16021790555060008054906101000a900473ffffffffffffffffffffffffffffffffffffffff1673ffffffffffffffffffffffffffffffffffffffff16600073ffffffffffffffffffffffffffffffffffffffff167f342827c97908e5e2f71151c08502a66d44b6f758e3ac2f1de95f02eb95f0a73560405160405180910390a36127b7806100db6000396000f3fe608060405234801561001057600080fd5b50600436106100ea5760003560e01c8063832880e71161008c578063a6f9dae111610066578063a6f9dae114610239578063afcf93c614610255578063cf71bf2614610271578063d38e7ea91461028d576100ea565b8063832880e7146101df578063893d20e8146101fd578063a01b76bf1461021b576100ea565b80632ab47acb116100c85780632ab47acb14610147578063396d73fd14610177578063521e966c14610193578063719c0d04146101af576100ea565b8063213f1416146100ef578063215d92cc1461010d5780632236684414610129575b600080fd5b6100f76102be565b6040516101049190612206565b60405180910390f35b61012760048036038101906101229190611b81565b6104e2565b005b6101316105cd565b60405161013e9190612228565b60405180910390f35b610161600480360381019061015c9190611baa565b610621565b60405161016e919061231e565b60405180910390f35b610191600480360381019061018c9190611d31565b610809565b005b6101ad60048036038101906101a89190611d5a565b610b71565b005b6101c960048036038101906101c49190611d31565b610cb2565b6040516101d69190612243565b60405180910390f35b6101e7610d68565b6040516101f491906122fc565b60405180910390f35b6102056112f7565b60405161021291906121eb565b60405180910390f35b610223611320565b604051610230919061231e565b60405180910390f35b610253600480360381019061024e9190611b81565b61132d565b005b61026f600480360381019061026a9190611beb565b611478565b005b61028b60048036038101906102869190611beb565b61176e565b005b6102a760048036038101906102a29190611d31565b6117de565b6040516102b5929190612265565b60405180910390f35b606060005b6006805490508110156104de5760056006828154811061030c577f4e487b7100000000000000000000000000000000000000000000000000000000600052603260045260246000fd5b90600052602060002001548154811061034e577f4e487b7100000000000000000000000000000000000000000000000000000000600052603260045260246000fd5b90600052602060002090600202016040518060400160405290816000820180546103779061258e565b80601f01602080910402602001604051908101604052809291908181526020018280546103a39061258e565b80156103f05780601f106103c5576101008083540402835291602001916103f0565b820191906000526020600020905b8154815290600101906020018083116103d357829003601f168201915b505050505081526020016001820180548060200260200160405190810160405280929190818152602001828054801561047e57602002820191906000526020600020905b8160009054906101000a900473ffffffffffffffffffffffffffffffffffffffff1673ffffffffffffffffffffffffffffffffffffffff1681526020019060010190808311610434575b5050505050815250508282815181106104c0577f4e487b7100000000000000000000000000000000000000000000000000000000600052603260045260246000fd5b602002602001018190525080806104d6906125f1565b9150506102c3565b5090565b60008054906101000a900473ffffffffffffffffffffffffffffffffffffffff1673ffffffffffffffffffffffffffffffffffffffff163373ffffffffffffffffffffffffffffffffffffffff1614610570576040517f08c379a0000000000000000000000000000000000000000000000000000000008152600401610567906122bc565b60405180910390fd5b60018060008373ffffffffffffffffffffffffffffffffffffffff1673ffffffffffffffffffffffffffffffffffffffff16815260200190815260200160002060080160006101000a81548160ff02191690831515021790555050565b6000600260003373ffffffffffffffffffffffffffffffffffffffff1673ffffffffffffffffffffffffffffffffffffffff16815260200190815260200160002060009054906101000a900460ff16905090565b600080600167ffffffffffffffff811115610665577f4e487b7100000000000000000000000000000000000000000000000000000000600052604160045260246000fd5b6040519080825280602002602001820160405280156106935781602001602082028036833780820191505090505b50905033816000815181106106d1577f4e487b7100000000000000000000000000000000000000000000000000000000600052603260045260246000fd5b602002602001019073ffffffffffffffffffffffffffffffffffffffff16908173ffffffffffffffffffffffffffffffffffffffff1681525050600560405180604001604052808581526020018381525090806001815401808255809150506001900390600052602060002090600202016000909190919091506000820151816000019080519060200190610767929190611953565b5060208201518160010190805190602001906107849291906119d9565b5050506000600160058054905061079b91906124d0565b905060068190806001815401808255809150506001900390600052602060002001600090919091909150557f01d662eb094eae751a9e8c78515d3462dea52d84eaa6616e2ddeebe481e56e9b81856040516107f7929190612339565b60405180910390a18092505050919050565b600060058281548110610845577f4e487b7100000000000000000000000000000000000000000000000000000000600052603260045260246000fd5b9060005260206000209060020201905060005b816001018054905081101561094f573373ffffffffffffffffffffffffffffffffffffffff168260010182815481106108ba577f4e487b7100000000000000000000000000000000000000000000000000000000600052603260045260246000fd5b9060005260206000200160009054906101000a900473ffffffffffffffffffffffffffffffffffffffff1673ffffffffffffffffffffffffffffffffffffffff16141561093c576040517f08c379a0000000000000000000000000000000000000000000000000000000008152600401610933906122dc565b60405180910390fd5b8080610947906125f1565b915050610858565b5080600101339080600181540180825580915050600190039060005260206000200160009091909190916101000a81548173ffffffffffffffffffffffffffffffffffffffff021916908373ffffffffffffffffffffffffffffffffffffffff1602179055506003816001018054905010610b265760005b600680549050811015610b24578260068281548110610a0f577f4e487b7100000000000000000000000000000000000000000000000000000000600052603260045260246000fd5b90600052602060002001541415610b115760066001600680549050610a3491906124d0565b81548110610a6b577f4e487b7100000000000000000000000000000000000000000000000000000000600052603260045260246000fd5b906000526020600020015460068281548110610ab0577f4e487b7100000000000000000000000000000000000000000000000000000000600052603260045260246000fd5b90600052602060002001819055506006805480610af6577f4e487b7100000000000000000000000000000000000000000000000000000000600052603160045260246000fd5b60019003818190600052602060002001600090559055610b24565b8080610b1c906125f1565b9150506109c7565b505b7f612af120b0488db1855887593be0f7cb0a4299306f7b6fa63cbaaef364a73fb58282600001338460010180549050604051610b659493929190612369565b60405180910390a15050565b600060058381548110610bad577f4e487b7100000000000000000000000000000000000000000000000000000000600052603260045260246000fd5b9060005260206000209060020201905081816000019080519060200190610bd5929190611953565b50806001016000610be69190611a63565b80600101339080600181540180825580915050600190039060005260206000200160009091909190916101000a81548173ffffffffffffffffffffffffffffffffffffffff021916908373ffffffffffffffffffffffffffffffffffffffff16021790555060068390806001815401808255809150506001900390600052602060002001600090919091909150557ffb771c013f868d6e1489c30b4f2e6ce2ae457350176853d17c639227808b0a198383604051610ca5929190612339565b60405180910390a1505050565b60058181548110610cc257600080fd5b9060005260206000209060020201600091509050806000018054610ce59061258e565b80601f0160208091040260200160405190810160405280929190818152602001828054610d119061258e565b8015610d5e5780601f10610d3357610100808354040283529160200191610d5e565b820191906000526020600020905b815481529060010190602001808311610d4157829003601f168201915b5050505050905081565b610d70611a84565b600260003373ffffffffffffffffffffffffffffffffffffffff1673ffffffffffffffffffffffffffffffffffffffff16815260200190815260200160002060009054906101000a900460ff16610dfc576040517f08c379a0000000000000000000000000000000000000000000000000000000008152600401610df39061229c565b60405180910390fd5b600160003373ffffffffffffffffffffffffffffffffffffffff1673ffffffffffffffffffffffffffffffffffffffff16815260200190815260200160002060405180610120016040529081600082018054610e579061258e565b80601f0160208091040260200160405190810160405280929190818152602001828054610e839061258e565b8015610ed05780601f10610ea557610100808354040283529160200191610ed0565b820191906000526020600020905b815481529060010190602001808311610eb357829003601f168201915b50505050508152602001600182018054610ee99061258e565b80601f0160208091040260200160405190810160405280929190818152602001828054610f159061258e565b8015610f625780601f10610f3757610100808354040283529160200191610f62565b820191906000526020600020905b815481529060010190602001808311610f4557829003601f168201915b50505050508152602001600282018054610f7b9061258e565b80601f0160208091040260200160405190810160405280929190818152602001828054610fa79061258e565b8015610ff45780601f10610fc957610100808354040283529160200191610ff4565b820191906000526020600020905b815481529060010190602001808311610fd757829003601f168201915b5050505050815260200160038201805461100d9061258e565b80601f01602080910402602001604051908101604052809291908181526020018280546110399061258e565b80156110865780601f1061105b57610100808354040283529160200191611086565b820191906000526020600020905b81548152906001019060200180831161106957829003601f168201915b5050505050815260200160048201805461109f9061258e565b80601f01602080910402602001604051908101604052809291908181526020018280546110cb9061258e565b80156111185780601f106110ed57610100808354040283529160200191611118565b820191906000526020600020905b8154815290600101906020018083116110fb57829003601f168201915b505050505081526020016005820180546111319061258e565b80601f016020809104026020016040519081016040528092919081815260200182805461115d9061258e565b80156111aa5780601f1061117f576101008083540402835291602001916111aa565b820191906000526020600020905b81548152906001019060200180831161118d57829003601f168201915b505050505081526020016006820180546111c39061258e565b80601f01602080910402602001604051908101604052809291908181526020018280546111ef9061258e565b801561123c5780601f106112115761010080835404028352916020019161123c565b820191906000526020600020905b81548152906001019060200180831161121f57829003601f168201915b505050505081526020016007820180546112559061258e565b80601f01602080910402602001604051908101604052809291908181526020018280546112819061258e565b80156112ce5780601f106112a3576101008083540402835291602001916112ce565b820191906000526020600020905b8154815290600101906020018083116112b157829003601f168201915b505050505081526020016008820160009054906101000a900460ff161515151581525050905090565b60008060009054906101000a900473ffffffffffffffffffffffffffffffffffffffff16905090565b6000600580549050905090565b60008054906101000a900473ffffffffffffffffffffffffffffffffffffffff1673ffffffffffffffffffffffffffffffffffffffff163373ffffffffffffffffffffffffffffffffffffffff16146113bb576040517f08c379a00000000000000000000000000000000000000000000000000000000081526004016113b2906122bc565b60405180910390fd5b8073ffffffffffffffffffffffffffffffffffffffff1660008054906101000a900473ffffffffffffffffffffffffffffffffffffffff1673ffffffffffffffffffffffffffffffffffffffff167f342827c97908e5e2f71151c08502a66d44b6f758e3ac2f1de95f02eb95f0a73560405160405180910390a3806000806101000a81548173ffffffffffffffffffffffffffffffffffffffff021916908373ffffffffffffffffffffffffffffffffffffffff16021790555050565b600260003373ffffffffffffffffffffffffffffffffffffffff1673ffffffffffffffffffffffffffffffffffffffff16815260200190815260200160002060009054906101000a900460ff16611504576040517f08c379a00000000000000000000000000000000000000000000000000000000081526004016114fb9061229c565b60405180910390fd5b86600160003373ffffffffffffffffffffffffffffffffffffffff1673ffffffffffffffffffffffffffffffffffffffff168152602001908152602001600020600001908051906020019061155a929190611953565b5085600160003373ffffffffffffffffffffffffffffffffffffffff1673ffffffffffffffffffffffffffffffffffffffff16815260200190815260200160002060010190805190602001906115b1929190611953565b5084600160003373ffffffffffffffffffffffffffffffffffffffff1673ffffffffffffffffffffffffffffffffffffffff1681526020019081526020016000206002019080519060200190611608929190611953565b5083600160003373ffffffffffffffffffffffffffffffffffffffff1673ffffffffffffffffffffffffffffffffffffffff168152602001908152602001600020600301908051906020019061165f929190611953565b5082600160003373ffffffffffffffffffffffffffffffffffffffff1673ffffffffffffffffffffffffffffffffffffffff16815260200190815260200160002060050190805190602001906116b6929190611953565b5081600160003373ffffffffffffffffffffffffffffffffffffffff1673ffffffffffffffffffffffffffffffffffffffff168152602001908152602001600020600701908051906020019061170d929190611953565b5080600160003373ffffffffffffffffffffffffffffffffffffffff1673ffffffffffffffffffffffffffffffffffffffff1681526020019081526020016000206006019080519060200190611764929190611953565b5050505050505050565b6001600260003373ffffffffffffffffffffffffffffffffffffffff1673ffffffffffffffffffffffffffffffffffffffff16815260200190815260200160002060006101000a81548160ff0219169083151502179055506117d587878585858a8a611478565b50505050505050565b60608060006005848154811061181d577f4e487b7100000000000000000000000000000000000000000000000000000000600052603260045260246000fd5b9060005260206000209060020201905080600001816001018180546118419061258e565b80601f016020809104026020016040519081016040528092919081815260200182805461186d9061258e565b80156118ba5780601f1061188f576101008083540402835291602001916118ba565b820191906000526020600020905b81548152906001019060200180831161189d57829003601f168201915b505050505091508080548060200260200160405190810160405280929190818152602001828054801561194257602002820191906000526020600020905b8160009054906101000a900473ffffffffffffffffffffffffffffffffffffffff1673ffffffffffffffffffffffffffffffffffffffff16815260200190600101908083116118f8575b505050505090509250925050915091565b82805461195f9061258e565b90600052602060002090601f01602090048101928261198157600085556119c8565b82601f1061199a57805160ff19168380011785556119c8565b828001600101855582156119c8579182015b828111156119c75782518255916020019190600101906119ac565b5b5090506119d59190611ad2565b5090565b828054828255906000526020600020908101928215611a52579160200282015b82811115611a515782518260006101000a81548173ffffffffffffffffffffffffffffffffffffffff021916908373ffffffffffffffffffffffffffffffffffffffff160217905550916020019190600101906119f9565b5b509050611a5f9190611ad2565b5090565b5080546000825590600052602060002090810190611a819190611ad2565b50565b60405180610120016040528060608152602001606081526020016060815260200160608152602001606081526020016060815260200160608152602001606081526020016000151581525090565b5b80821115611aeb576000816000905550600101611ad3565b5090565b6000611b02611afd846123da565b6123b5565b905082815260208101848484011115611b1a57600080fd5b611b2584828561254c565b509392505050565b600081359050611b3c81612753565b92915050565b600082601f830112611b5357600080fd5b8135611b63848260208601611aef565b91505092915050565b600081359050611b7b8161276a565b92915050565b600060208284031215611b9357600080fd5b6000611ba184828501611b2d565b91505092915050565b600060208284031215611bbc57600080fd5b600082013567ffffffffffffffff811115611bd657600080fd5b611be284828501611b42565b91505092915050565b600080600080600080600060e0888a031215611c0657600080fd5b600088013567ffffffffffffffff811115611c2057600080fd5b611c2c8a828b01611b42565b975050602088013567ffffffffffffffff811115611c4957600080fd5b611c558a828b01611b42565b965050604088013567ffffffffffffffff811115611c7257600080fd5b611c7e8a828b01611b42565b955050606088013567ffffffffffffffff811115611c9b57600080fd5b611ca78a828b01611b42565b945050608088013567ffffffffffffffff811115611cc457600080fd5b611cd08a828b01611b42565b93505060a088013567ffffffffffffffff811115611ced57600080fd5b611cf98a828b01611b42565b92505060c088013567ffffffffffffffff811115611d1657600080fd5b611d228a828b01611b42565b91505092959891949750929550565b600060208284031215611d4357600080fd5b6000611d5184828501611b6c565b91505092915050565b60008060408385031215611d6d57600080fd5b6000611d7b85828601611b6c565b925050602083013567ffffffffffffffff811115611d9857600080fd5b611da485828601611b42565b9150509250929050565b6000611dba8383611dda565b60208301905092915050565b6000611dd283836120a2565b905092915050565b611de381612504565b82525050565b611df281612504565b82525050565b6000611e0382612440565b611e0d818561247b565b9350611e188361240b565b8060005b83811015611e49578151611e308882611dae565b9750611e3b83612461565b925050600181019050611e1c565b5085935050505092915050565b6000611e6182612440565b611e6b818561248c565b9350611e768361240b565b8060005b83811015611ea7578151611e8e8882611dae565b9750611e9983612461565b925050600181019050611e7a565b5085935050505092915050565b6000611ebf8261244b565b611ec9818561249d565b935083602082028501611edb8561241b565b8060005b85811015611f175784840389528151611ef88582611dc6565b9450611f038361246e565b925060208a01995050600181019050611edf565b50829750879550505050505092915050565b611f3281612516565b82525050565b611f4181612516565b82525050565b6000611f5282612456565b611f5c81856124ae565b9350611f6c81856020860161255b565b611f75816126c7565b840191505092915050565b6000611f8b82612456565b611f9581856124bf565b9350611fa581856020860161255b565b611fae816126c7565b840191505092915050565b60008154611fc68161258e565b611fd081866124bf565b94506001821660008114611feb5760018114611ffd57612030565b60ff1983168652602086019350612030565b6120068561242b565b60005b8381101561202857815481890152600182019150602081019050612009565b808801955050505b50505092915050565b60006120466010836124bf565b9150612051826126d8565b602082019050919050565b60006120696013836124bf565b915061207482612701565b602082019050919050565b600061208c601f836124bf565b91506120978261272a565b602082019050919050565b600060408301600083015184820360008601526120bf8282611f47565b915050602083015184820360208601526120d98282611df8565b9150508091505092915050565b60006101208301600083015184820360008601526121048282611f47565b9150506020830151848203602086015261211e8282611f47565b915050604083015184820360408601526121388282611f47565b915050606083015184820360608601526121528282611f47565b9150506080830151848203608086015261216c8282611f47565b91505060a083015184820360a08601526121868282611f47565b91505060c083015184820360c08601526121a08282611f47565b91505060e083015184820360e08601526121ba8282611f47565b9150506101008301516121d1610100860182611f29565b508091505092915050565b6121e581612542565b82525050565b60006020820190506122006000830184611de9565b92915050565b600060208201905081810360008301526122208184611eb4565b905092915050565b600060208201905061223d6000830184611f38565b92915050565b6000602082019050818103600083015261225d8184611f80565b905092915050565b6000604082019050818103600083015261227f8185611f80565b905081810360208301526122938184611e56565b90509392505050565b600060208201905081810360008301526122b581612039565b9050919050565b600060208201905081810360008301526122d58161205c565b9050919050565b600060208201905081810360008301526122f58161207f565b9050919050565b6000602082019050818103600083015261231681846120e6565b905092915050565b600060208201905061233360008301846121dc565b92915050565b600060408201905061234e60008301856121dc565b81810360208301526123608184611f80565b90509392505050565b600060808201905061237e60008301876121dc565b81810360208301526123908186611fb9565b905061239f6040830185611de9565b6123ac60608301846121dc565b95945050505050565b60006123bf6123d0565b90506123cb82826125c0565b919050565b6000604051905090565b600067ffffffffffffffff8211156123f5576123f4612698565b5b6123fe826126c7565b9050602081019050919050565b6000819050602082019050919050565b6000819050602082019050919050565b60008190508160005260206000209050919050565b600081519050919050565b600081519050919050565b600081519050919050565b6000602082019050919050565b6000602082019050919050565b600082825260208201905092915050565b600082825260208201905092915050565b600082825260208201905092915050565b600082825260208201905092915050565b600082825260208201905092915050565b60006124db82612542565b91506124e683612542565b9250828210156124f9576124f861263a565b5b828203905092915050565b600061250f82612522565b9050919050565b60008115159050919050565b600073ffffffffffffffffffffffffffffffffffffffff82169050919050565b6000819050919050565b82818337600083830152505050565b60005b8381101561257957808201518184015260208101905061255e565b83811115612588576000848401525b50505050565b600060028204905060018216806125a657607f821691505b602082108114156125ba576125b9612669565b5b50919050565b6125c9826126c7565b810181811067ffffffffffffffff821117156125e8576125e7612698565b5b80604052505050565b60006125fc82612542565b91507fffffffffffffffffffffffffffffffffffffffffffffffffffffffffffffffff82141561262f5761262e61263a565b5b600182019050919050565b7f4e487b7100000000000000000000000000000000000000000000000000000000600052601160045260246000fd5b7f4e487b7100000000000000000000000000000000000000000000000000000000600052602260045260246000fd5b7f4e487b7100000000000000000000000000000000000000000000000000000000600052604160045260246000fd5b6000601f19601f8301169050919050565b7f75736572206e6f74206372656174656400000000000000000000000000000000600082015250565b7f43616c6c6572206973206e6f74206f776e657200000000000000000000000000600082015250565b7f416c72656164792076616c696461746564206279207468697320757365722e00600082015250565b61275c81612504565b811461276757600080fd5b50565b61277381612542565b811461277e57600080fd5b5056fea2646970667358221220d56eed1cb277c4eb2d38cceb38644f69e60ca9976d52027b7f6cfa4df85f532764736f6c63430008040033",
  "immutableReferences": {},
  "source": "// SPDX-License-Identifier: MIT\r\npragma solidity 0.8.4;\r\n\r\nimport \"./Owner.sol\";\r\n\r\ncontract Maticulum is Owner {\r\n  \r\n   struct user{\r\n       string name;\r\n       string firstname;\r\n       string birthCountry;\r\n       string birthDate;\r\n       string matricule;\r\n       string mail;\r\n       string mobile;\r\n       string telfixe;\r\n       bool isAdmin;\r\n   }\r\n   \r\n   struct School {\r\n        string name;\r\n        address[] validators;\r\n    }\r\n   \r\n   mapping(address => user) Users;\r\n   mapping(address => bool) UserIsCreated;\r\n   mapping(address => bool) UserIsRegistered;\r\n   address firstAdminUniveristy;\r\n   bool hasAdmin;\r\n   \r\n   School[] public schools;\r\n   uint256[] schoolsToValidate;\r\n   \r\n   event UserCreated(address userAdress);\r\n   \r\n   event SchoolAdded(uint256 id, string name);\r\n   event SchoolUpdated(uint256 id, string name);\r\n   event SchoolValidated(uint256 id, string name, address validator, uint256 count);\r\n   \r\n   function setUserAdmin(address userAdress) external isOwner{\r\n       Users[userAdress].isAdmin = true;\r\n   }\r\n   \r\n   function userRegister(string memory name, string memory firstname, string memory birthCountry, string memory birthDate,\r\n   string memory mail, string memory telfixe, string memory mobile) external {\r\n       UserIsCreated[msg.sender] = true;\r\n       userUpdate(name, firstname,mail, telfixe, mobile, birthCountry, birthDate);\r\n   }\r\n   \r\n   function userUpdate(string memory name, string memory firstname, string memory birthCountry, string memory birthDate,\r\n   string memory mail, string memory telfixe, string memory mobile) public{\r\n       require(UserIsCreated[msg.sender], \"user not created\");\r\n       Users[msg.sender].name = name;\r\n       Users[msg.sender].firstname = firstname;\r\n       Users[msg.sender].birthCountry = birthCountry;\r\n       Users[msg.sender].birthDate = birthDate;\r\n       Users[msg.sender].mail = mail;\r\n       Users[msg.sender].telfixe = telfixe;\r\n       Users[msg.sender].mobile = mobile;\r\n    }\r\n   \r\n   function getUser() external view returns(user memory){\r\n       require(UserIsCreated[msg.sender], \"user not created\");\r\n       return Users[msg.sender];\r\n   }\r\n   \r\n   function isRegistered() external view returns(bool){\r\n       return UserIsCreated[msg.sender];\r\n   }\r\n   \r\n   function addSchool(string memory _name) external /* only(Admin) */ returns (uint256) {\r\n        address[] memory validators = new address[](1);\r\n        validators[0] = msg.sender;\r\n        schools.push(School(_name, validators));\r\n\r\n        uint256 id = schools.length - 1;\r\n        schoolsToValidate.push(id);\r\n        \r\n        emit SchoolAdded(id, _name);\r\n        return id;\r\n    }\r\n\r\n\r\n    function updateSchool(uint256 _id, string memory _name) external /* only(Admin) */ {\r\n        School storage school = schools[_id];\r\n        school.name = _name;\r\n        delete school.validators;\r\n        school.validators.push(msg.sender);\r\n\r\n        schoolsToValidate.push(_id);\r\n\r\n        emit SchoolUpdated(_id, _name);\r\n    }\r\n\r\n\r\n    function validateSchool(uint256 _id) external /* only(Admin) */ {\r\n        School storage school = schools[_id];\r\n\r\n        for (uint256 i = 0; i < school.validators.length; i++) {\r\n            if (school.validators[i] == msg.sender) {\r\n                revert(\"Already validated by this user.\");\r\n            }\r\n        }\r\n        \r\n        school.validators.push(msg.sender);\r\n        if (school.validators.length >= 3) {\r\n            for (uint256 i = 0; i < schoolsToValidate.length; i++) {\r\n                if (schoolsToValidate[i] == _id) {\r\n                    schoolsToValidate[i] = schoolsToValidate[schoolsToValidate.length - 1];\r\n                    schoolsToValidate.pop();\r\n                    break;\r\n                }\r\n            }\r\n        }\r\n        \r\n        emit SchoolValidated(_id, school.name, msg.sender, school.validators.length);\r\n    }\r\n\r\n\r\n    function getNbSchools() external view returns (uint256 length) {\r\n        return schools.length;\r\n    }\r\n\r\n\r\n    function getSchool(uint256 _id) external view returns (string memory name, address[] memory validators) {\r\n        School storage school = schools[_id];\r\n\r\n        return (school.name, school.validators);\r\n    }\r\n\r\n\r\n    function getSchoolsWaitingValidation() external view /* only(Admin) */ returns (School[] memory needValidation) {\r\n        for (uint256 i = 0; i < schoolsToValidate.length; i++) {\r\n            needValidation[i] = schools[schoolsToValidate[i]];\r\n        }\r\n    }\r\n}",
  "sourcePath": "C:/Node/Maticulum-master/contracts/Maticulum.sol",
  "compiler": {
    "name": "solc",
    "version": "0.8.4+commit.c7e474f2.Emscripten.clang"
  },
  "schemaVersion": "3.4.1",
  "updatedAt": "2021-07-05T15:32:51.435Z",
  "networkType": "ethereum",
  "devdoc": {
    "kind": "dev",
    "methods": {
      "changeOwner(address)": {
        "details": "Change owner",
        "params": {
          "newOwner": "address of new owner"
        }
      },
      "getOwner()": {
        "details": "Return owner address ",
        "returns": {
          "_0": "address of owner"
        }
      }
    },
    "version": 1
  },
  "userdoc": {
    "kind": "user",
    "methods": {},
    "version": 1
  }
}